:100000000C94B1000C94CE000C94CE000C94CE0055
:100010000C94CE000C94CE000C94CE000C94CE0028
:100020000C94CE000C942C050C94CE000C94CE00B5
:100030000C94CE000C944B010C94CE000C94CE008A
:100040000C94CE000C94CE000C94CE000C94CE00F8
:100050000C94CE000C9499040C94CE000C94CE0019
:100060000C94CE000C94CE0000407A10F35A00A0FD
:10007000724E18090010A5D4E80000E87648170071
:1000800000E40B54020000CA9A3B000000E1F505B1
:10009000000080969800000040420F000000A086FB
:1000A00001000000102700000000E803000000002D
:1000B0006400000000000A000000000001000000D1
:1000C00000002C76D888DC674F0823DFC1DFAE59EB
:1000D000E1B1B796E5E3E453C63AE651997696E87E
:1000E000E6C28426EB898C9B62ED407C6FFCEFBC02
:1000F0009C9F40F2BAA56FA5F490055A2AF75C932D
:100100006B6CF9676DC11BFCE0E40D47FEF520E662
:10011000B500D0ED902E0300943577050080841E45
:10012000080000204E0A000000C80C333333330FA0
:10013000986E12831141EF8D2114893BE65516CF3D
:10014000FEE6DB18D1844B381BF77C1D901DA4BB49
:10015000E424203284725E228100C9F124ECA1E5FE
:100160003D2711241FBECFEFD8E0DEBFCDBF11E089
:10017000A0E0B1E0E0EBF5E102C005900D92A436FD
:10018000B107D9F721E0A4E6B1E001C01D92A03883
:10019000B207E1F70E94D0000C94D60A0C9400003C
:1001A00000D000D0CDB7DEB70E94270184E191E0F6
:1001B0000E9467058091100190911101A091120198
:1001C000B0911301BC01CD010E9473058FE191E054
:1001D0000E94670581E291E00E94670580917801A5
:1001E00090917901A0917A01B0917B01BC01CD0180
:1001F0000E9473058FE191E00E9467058DE291E016
:100200000E9467058091680190916901A0916A013F
:10021000B0916B01BC01CD010E9473058FE191E0AB
:100220000E9467058CE391E00E946705809174014C
:1002300090917501A0917601B0917701BC01CD013B
:100240000E94730580E691E00E946705AFCF0E948F
:1002500023050E9450050E9491040E9480040E9480
:100260003D010E94D1032FEF81EE94E021508040A8
:100270009040E1F700C00000089582E08093810083
:1002800081E080936F0088E79CEE909385008093D7
:100290008400789408951F920F920FB60F92112444
:1002A0004F925F926F927F928F929F92AF92BF9286
:1002B000CF92DF92EF92FF920F931F932F933F9372
:1002C0004F935F936F937F938F939F93AF93BF935E
:1002D000EF93FF93CF93DF93CDB7DEB72A97DEBFBF
:1002E000CDBF88E79CEE9093850080938400809139
:1002F000100190911101A0911201B09113018D8311
:100300009E83AF83B8879C01AD0160E070E88CEFFD
:1003100093E40E94D6056B017C01CB01D701809349
:10032000680190936901A0936A01B0936B012091D9
:100330007401309175014091760150917701C98225
:10034000DA82EB82FC8269817A818B819C810E94B6
:10035000D7058B018A87998720E030E543E457E48D
:1003600069831A838B839C8369817A818B819C81C9
:100370000E949B0718160CF427C120E030E543E4E7
:1003800057EC69817A818B819C810E94430687FDAD
:1003900022C1C801AA85B985809374019093750123
:1003A000A0937601B093770120916C0130916D019B
:1003B00040916E0150916F01C982DA82EB82FC821A
:1003C00069817A818B819C810E94D6054B015C01F9
:1003D000CB01D5018093700190937101A0937201BC
:1003E000B0937301C601D70180936C0190936D01A6
:1003F000A0936E01B0936F014090000150900101F5
:10040000609002017090030198014A8559856091BE
:1004100008017091090180910A0190910B010E94DD
:10042000A007A301920169837A838B839C836981EE
:100430007A818B819C810E94A0078B018A87998792
:1004400020910C0130910D0140910E0150910F014E
:10045000C982DA82EB82FC8269817A818B819C81FC
:100460000E94A0079B01AC0109831A83BA85BB8354
:1004700089858C8369817A818B819C810E94D705D3
:100480008B018A8799872091040130910501409161
:1004900006015091070189829A82AB82BC826981F0
:1004A0007A818B819C810E94A007A30192016983BC
:1004B0007A838B839C8369817A818B819C810E9462
:1004C00048069B01AC0109831A839A859B83A98501
:1004D000AC8369817A818B819C810E94D7058B01D5
:1004E0008A87998720E030E04AE753E469831A83DA
:1004F0008B839C8369817A818B819C810E949B077D
:1005000018160CF46FC020E030E04AE753EC698124
:100510007A818B819C810E94430687FD6AC0C80155
:10052000AA85B9858093780190937901A0937A0187
:10053000B0937B0120E030E046E154E46D817E81A0
:100540008F8198850E949B0718160CF059C0109255
:1005500078011092790110927A0110927B01109229
:1005600074011092750110927601109277018CE45B
:1005700091E00E9467050E948E042A960FB6F894B7
:10058000DEBF0FBECDBFDF91CF91FF91EF91BF9145
:10059000AF919F918F917F916F915F914F913F911B
:1005A0002F911F910F91FF90EF90DF90CF90BF9010
:1005B000AF909F908F907F906F905F904F900F9033
:1005C0000FBE0F901F90189500E010E5B3E4BA87B6
:1005D00087E48987DECE00E010E593E49A87A7ECF4
:1005E000A987D7CE00E010E09AE79A87A3E4A9870D
:1005F00096CF00E010E0BAE7BA8783E489878FCF0F
:1006000009831A839A859B83A985AC8369817A8142
:100610008B819C810E94BA06862F0E948B04B09128
:100620006701BD830B2F10E08091680190916901F3
:10063000A0916A01B0916B0189839A83AB83BC83DB
:1006400020E030E0A901BC01CD010E949B0787FD9D
:1006500010C069817A818B819C810E94BA0666955F
:1006600070E0061717070CF59D819F5F9093670157
:1006700084CF89819A81AB81BC81B05889839A8368
:10068000AB83BC8320E030E040E05FE3BC01CD0100
:100690000E94A00769837A838B839C8369817A8116
:1006A0008B819C810E94BA06DBCF109267018091FA
:1006B00066018093650180E080936401813130F0B0
:1006C000809166018E5F8093660157CF80916501AE
:1006D000805F8093650162E00E94D4038091640191
:1006E0008F5FEACF289A28980895289A0000000082
:1006F0000000000000000000000028980895EF921C
:10070000FF920F931F93CF93DF93E82EF62E042FC3
:10071000C8E0D0E010E88E2D8123882339F10E94B3
:100720007503169521972097B1F7C8E0D0E010E83F
:100730008F2D81238823E9F00E9475031695219758
:100740002097B1F7C8E0D0E010E8802F81238823FC
:1007500099F00E947503169521972097B1F7DF91C4
:10076000CF911F910F91FF90EF9008950E94720317
:10077000D8CF0E947203E2CF0E947203ECCFCF93D6
:10078000C1E140E060E080E00E947F03C150C11100
:10079000F8CF8FE19EE40197F1F700C00000CF9100
:1007A0000895209A0C94BF03CF93DF930F92CDB797
:1007B000DEB7282F623009F46CC0A8F4E82FF0E00F
:1007C000611145C08635B0F485E590E08E1B9F0B26
:1007D00066E070E00E94C205462F822F66E00E940C
:1007E000A205682F45C0633009F465C00F90DF9102
:1007F000CF9108958B3AB8F0CF018B5A910926E03A
:1008000030E0B9010E94C205462F8FEF90E08E1BA9
:100810009F0BB9010E94C205862F60E00F90DF9107
:10082000CF910C947F038BEA90E08E1B9F0B26E008
:1008300030E0B9010E94C2056983CF018655910954
:10084000B9010E94C205862F40E06981E7CF863555
:1008500088F485E590E08E1B9F0B63E070E00E94BA
:10086000C205462F8BEA289F812D1124682F66959B
:1008700080E0D4CF8B3A30F0CF018B5A910923E03E
:1008800030E0BFCF8BEA90E08E1B9F0B23E030E07F
:10089000D0CF45E5481B682F863550F38B3A28F0BA
:1008A00045E5480F60E08095B9CF6BEA681B40E0F2
:1008B0008AEA820FB3CF682F70E0880F820F263547
:1008C00040F425E530E0261B370B422F440F420F42
:1008D00088CF2B3A58F04FEF480F8FEF90E0861BF0
:1008E000970B982F990F60E0890F98CF4BEA50E053
:1008F000461B570B642F660F640F40E082508ECF6B
:100900008AB188678AB98BB188618BB983EA84BD63
:1009100082E085BD089518BC87BD089518BC17BC3A
:1009200008958BEC80937A0080E480937C00789427
:1009300008951F920F920FB60F921124EF92FF921B
:100940000F931F932F933F934F935F936F937F93D7
:100950008F939F93AF93BF93EF93FF93CF93DF93C7
:1009600000D000D0CDB7DEB72091780029838091E8
:100970007900A22FB82FBA83A983B0937D01A093E9
:100980007C0124EA30E74DE75FE36091100170914C
:10099000110180911201909113010E94A0077B0127
:1009A0008C01A981BA81CD01A0E0B0E089839A834E
:1009B000AB83BC83BC01CD010E94E90620E037ED8A
:1009C00043E25CE369837A838B839C8369817A81C8
:1009D0008B819C810E94A0079B01AC01E982FA8275
:1009E0000B831C8369817A818B819C810E94D7054E
:1009F0006093100170931101809312019093130181
:100A000080E480937C00EAE7F0E08081806480836A
:100A10000F900F900F900F90DF91CF91FF91EF917A
:100A2000BF91AF919F918F917F916F915F914F9106
:100A30003F912F911F910F91FF90EF900F900FBE5C
:100A40000F901F901895259A82E08093B10081E065
:100A500080937000789408951F921FB61F921124FE
:100A60002F938F939F9380917E0190917F01823A83
:100A700027E0920760F4019690937F0180937E01B6
:100A80009F918F912F911F901FBE1F9018951092CC
:100A90007F0110927E0185B190E2892785B9F0CF60
:100AA000E1ECF0E0808188618083E2ECF0E080811D
:100AB000866080831092C50083E38093C40008950C
:100AC0009091C00095FFFCCF8093C6000895CF930E
:100AD000DF93EC018991811103C0DF91CF910895DB
:100AE0000E946005F7CF0F931F93CF93DF93CDB78D
:100AF000DEB7A2970FB6F894DEBF0FBECDBF8E0152
:100B00000B5E1F4F23E045E06F8F78A389A39AA364
:100B10006F8D78A189A19AA10E940D08B801CE011C
:100B200001960E943A08CE0101960E946705A2969E
:100B30000FB6F894DEBF0FBECDBFDF91CF911F91EE
:100B40000F910895991B79E004C0991F961708F03A
:100B5000961B881F7A95C9F780950895AA1BBB1B21
:100B600051E107C0AA1FBB1FA617B70710F0A61BAD
:100B7000B70B881F991F5A95A9F780959095BC01CE
:100B8000CD01089597FB072E16F4009407D077FD4A
:100B900009D00E94AE0507FC05D03EF490958195E2
:100BA0009F4F0895709561957F4F08955058BB27CA
:100BB000AA270E94EE050C9461070E94530738F0A3
:100BC0000E945A0720F039F49F3F19F426F40C9440
:100BD00050070EF4E095E7FB0C944A07E92F0E94BA
:100BE000720758F3BA17620773078407950720F056
:100BF00079F4A6F50C9494070EF4E0950B2EBA2F19
:100C0000A02D0B01B90190010C01CA01A001112412
:100C1000FF27591B99F0593F50F4503E68F11A16BE
:100C2000F040A22F232F342F4427585FF3CF46954F
:100C300037952795A795F0405395C9F77EF41F1671
:100C4000BA0B620B730B840BBAF09150A1F0FF0F3B
:100C5000BB1F661F771F881FC2F70EC0BA0F621F27
:100C6000731F841F48F4879577956795B795F79517
:100C70009E3F08F0B0CF9395880F08F09927EE0FAC
:100C80009795879508950E94260708F481E00895B6
:100C90000E945C060C9461070E945A0758F00E945B
:100CA000530740F029F45F3F29F00C944A07511193
:100CB0000C9495070C9450070E94720768F39923CF
:100CC000B1F3552391F3951B550BBB27AA27621748
:100CD0007307840738F09F5F5F4F220F331F441F55
:100CE000AA1FA9F335D00E2E3AF0E0E832D0915089
:100CF0005040E695001CCAF72BD0FE2F29D0660F76
:100D0000771F881FBB1F261737074807AB07B0E8B8
:100D100009F0BB0B802DBF01FF2793585F4F3AF0BE
:100D20009E3F510578F00C944A070C9495075F3F5D
:100D3000E4F3983ED4F3869577956795B795F79544
:100D40009F5FC9F7880F911D9695879597F908952C
:100D5000E1E0660F771F881FBB1F621773078407C8
:100D6000BA0720F0621B730B840BBA0BEE1F88F7D7
:100D7000E09508950E947A0788F09F5798F0B92F60
:100D80009927B751B0F0E1F0660F771F881F991FC0
:100D90001AF0BA95C9F714C0B13091F00E949407C7
:100DA000B1E008950C949407672F782F8827B85FD7
:100DB00039F0B93FCCF3869577956795B395D9F718
:100DC0003EF490958095709561957F4F8F4F9F4F22
:100DD0000895E89409C097FB3EF49095809570952E
:100DE00061957F4F8F4F9F4F9923A9F0F92F96E977
:100DF000BB279395F695879577956795B795F111EC
:100E0000F8CFFAF4BB0F11F460FF1BC06F5F7F4F88
:100E10008F4F9F4F16C0882311F096E911C077239A
:100E200021F09EE8872F762F05C0662371F096E8A3
:100E3000862F70E060E02AF09A95660F771F881F72
:100E4000DAF7880F9695879597F90895990F000816
:100E5000550FAA0BE0E8FEEF16161706E807F9078C
:100E6000C0F012161306E407F50798F0621B730B27
:100E7000840B950B39F40A2661F0232B242B252BA8
:100E800021F408950A2609F4A140A6958FEF811D4B
:100E9000811D089597F99F6780E870E060E00895EC
:100EA0009FEF80EC089500240A9416161706180682
:100EB0000906089500240A9412161306140605065E
:100EC0000895092E0394000C11F4882352F0BB0FEF
:100ED00040F4BF2B11F460FF04C06F5F7F4F8F4F52
:100EE0009F4F089557FD9058440F551F59F05F3F8D
:100EF00071F04795880F97FB991F61F09F3F79F03C
:100F000087950895121613061406551FF2CF4695BD
:100F1000F1DF08C0161617061806991FF1CF86953F
:100F20007105610508940895E894BB276627772723
:100F3000CB0197F908950E94260708F48FEF0895D2
:100F40000E94B3070C9461070E94530738F00E9477
:100F50005A0720F0952311F00C944A070C9450077F
:100F600011240C9495070E94720770F3959FC1F3AA
:100F7000950F50E0551F629FF001729FBB27F00D47
:100F8000B11D639FAA27F00DB11DAA1F649F66279C
:100F9000B00DA11D661F829F2227B00DA11D621FEB
:100FA000739FB00DA11D621F839FA00D611D221FA5
:100FB000749F3327A00D611D231F849F600D211D89
:100FC000822F762F6A2F11249F5750409AF0F1F00C
:100FD00088234AF0EE0FFF1FBB1F661F771F881F75
:100FE00091505040A9F79E3F510580F00C944A075C
:100FF0000C9495075F3FE4F3983ED4F3869577957C
:101000006795B795F795E7959F5FC1F7FE2B880F1A
:10101000911D9695879597F90895EF920F931F93D9
:10102000CF93DF9300D000D00F92CDB7DEB7322F31
:101030000D8354E047FD54E1242F27FD2195E52E33
:10104000032F4D81512F69837A838B839C83698120
:101050007A818B819C810E9441088D81912F0F9014
:101060000F900F900F900F90DF91CF911F910F91E4
:10107000EF900895FB01DC0101900D920020E1F753
:101080000895ADE0B0E0E7E4F8E00C94A00A6A014E
:10109000722E602EFE2C102F2BE3201708F41BE37A
:1010A0001F5F012F27E0AE014F5F5F4F6A877B878D
:1010B0008C879D876A857B858C859D850E94C0096C
:1010C0004C010981902F9970802F88703F2D3071CD
:1010D000913039F4882309F4FAC07DE2A72E84E028
:1010E000BBC0B82EF1FCADC04F2D4170A42E4423DF
:1010F00009F477C08111ACC002FDF0C0F0E23F2ED0
:10110000540197FE02C0A12CB12C41E050E03110F7
:1011100002C040E050E0C5010196840F951F462CA7
:10112000512CA2014F5F5F4F611002C040E050E0C0
:10113000840F951F472D50E0272D281B84179507F6
:101140000CF020E03601FFEF6F1A7F0A332309F419
:10115000CCC0332019F0D6013C926301180D3A81BE
:10116000802F8071882319F0313309F41150111642
:101170000CF0E7C0193008F018E0F401EA19FB0997
:1011800041E050E04C0F5D1FE40FF51FA401411B2F
:1011900051095194419451087EE28A149B040CF445
:1011A000D2C04A155B050CF0CEC09181B1E0AB1AFC
:1011B000B10836016FEF661A760A3196A414B504A9
:1011C0000CF4C3C0D6019C93BFEFAB16BB0639F439
:1011D000360162E0660E711CD60111967C936301A4
:1011E000DCCF811138C0502F5470352E552309F4AF
:1011F00087CF83E0E72CE81A871508F0E12C31113E
:101200000BC00E2D10E0A80160E270E0C6010E9444
:10121000980AC00ED11EE12CBB2019F0F601B19244
:101220006F0186010D5F1F4F29E69EE686E6F2FEFE
:1012300003C029E49EE486E4F6012083918382833F
:1012400032C0811141C002FD4DC0EBE23E2E58CFAD
:1012500060E2A62E44CF83E0E72CE81A871508F059
:10126000E12C31110BC00E2D10E0A80160E270E0FE
:10127000C6010E94980AC00ED11EE12CAA2019F0C6
:10128000F601A1926F0186010D5F1F4F91E68EE678
:10129000F2FE02C091E48EE4D6018C9311969C93E9
:1012A000119712968C93F12CA70160E270E0C801AF
:1012B0000E94980AF801EE0DFF1D10828EEF9FEF3D
:1012C0002D96E1E10C94BC0A5BE2A52E08CF4DE21D
:1012D000B42E02FD05C08DE2382E12CF20E2B22ED0
:1012E00084E088CF9BE2B92EFBCFF3FC18C0E22E3E
:1012F000F12CA70160E270E0C6010E94980A360155
:101300006E0C7F1C20E0332071F0FFEFEF1AFF0A14
:10131000D3013C9220E036016E0C7F1C04C03320C8
:1013200071F0F6013082C22ED12CA60160E370E08C
:10133000C3010E94980AC60CD71C20E00FCF3601CB
:10134000F2CF11E01ACF90E331CF8A149B0439F425
:10135000363320F4353319F4811101C091E3F601DD
:101360009083E22EF12CA70160E270E0C3010E949D
:10137000980AF301EE0DFF1D108280E090E0A0CFEF
:10138000283008F027E03327DA01990F311D87FD57
:10139000916000966105710539F432602E5F3D93CE
:1013A00030E32A95E1F708959F3F30F080387105CA
:1013B000610509F03C5F3C5F3D93913008F0806827
:1013C000911DDF93CF931F930F93FF92EF92192FED
:1013D000987F9695E92F96959695E90FFF27EE53FE
:1013E000FF4F99273327EE24FF24A701E70105903B
:1013F0000894079428F4360FE71EF81E491F511D64
:10140000660F771F881F991F0694A1F70590079410
:1014100028F4E70EF81E491F561FC11D770F881FBD
:10142000991F661F0694A1F70590079428F4F80EFB
:10143000491F561FC71FD11D880F991F661F771F91
:101440000694A1F70590079420F4490F561FC71F73
:10145000D81F990F661F771F881F0694A9F78491DC
:101460001095177041F0D695C79557954795F79405
:10147000E7941A95C1F7E8E6F0E0689415901591A5
:1014800035916591959105907FE27395E118F10A88
:10149000430B560BC90BD009C0F7E10CF11E431FDB
:1014A000561FC91FD01D7EF4703311F48A95E6CF04
:1014B000E894015030F0080F0AF40027021708F4EE
:1014C000202F2395022F7A3328F079E37D932A95F4
:1014D000E9F710C07D932A9589F60694979567954C
:1014E000379517951794E118F10A430B560BC90B62
:1014F000D00998F023957E9173957A3308F070E3C4
:101500007C932013B8F77E9170617D9330F08395C2
:1015100071E37D9370E32A95E1F71124EF90FF903A
:101520000F911F91CF91DF91992787FD9095089595
:10153000DC0101C06D9341505040E0F708952F92B7
:101540003F924F925F926F927F928F929F92AF9253
:10155000BF92CF92DF92EF92FF920F931F93CF93A0
:10156000DF93CDB7DEB7CA1BDB0B0FB6F894DEBF37
:101570000FBECDBF09942A88398848885F846E845D
:101580007D848C849B84AA84B984C884DF80EE80A7
:10159000FD800C811B81AA81B981CE0FD11D0FB6B0
:1015A000F894DEBF0FBECDBFED010895F894FFCFD4
:1015B0000AD7233B0000803E0000E03F3333733FF7
:1015C0000080FC43706F7456616C75653A200009A9
:1015D000007069644F75747075743A20006572729A
:1015E0006F7243757272656E743A20006572726F25
:1015F00072496E74656772616C3A200044616E676F
:1016000065722C20616E676C652065786365737305
:041610000D0A0000BF
:00000001FF
