:100000000C94B1000C94CE000C94CE000C94CE0055
:100010000C94CE000C94CE000C94CE000C94CE0028
:100020000C94CE000C94EE040C94CE000C94CE00F4
:100030000C94CE000C944B010C94CE000C94CE008A
:100040000C94CE000C94CE000C94CE000C94CE00F8
:100050000C94CE000C945B040C94CE000C94CE0057
:100060000C94CE000C94CE0000407A10F35A00A0FD
:10007000724E18090010A5D4E80000E87648170071
:1000800000E40B54020000CA9A3B000000E1F505B1
:10009000000080969800000040420F000000A086FB
:1000A00001000000102700000000E803000000002D
:1000B0006400000000000A000000000001000000D1
:1000C00000002C76D888DC674F0823DFC1DFAE59EB
:1000D000E1B1B796E5E3E453C63AE651997696E87E
:1000E000E6C28426EB898C9B62ED407C6FFCEFBC02
:1000F0009C9F40F2BAA56FA5F490055A2AF75C932D
:100100006B6CF9676DC11BFCE0E40D47FEF520E662
:10011000B500D0ED902E0300943577050080841E45
:10012000080000204E0A000000C80C333333330FA0
:10013000986E12831141EF8D2114893BE65516CF3D
:10014000FEE6DB18D1844B381BF77C1D901DA4BB49
:10015000E424203284725E228100C9F124ECA1E5FE
:100160003D2711241FBECFEFD8E0DEBFCDBF11E089
:10017000A0E0B1E0E4E3F5E102C005900D92A03506
:10018000B107D9F721E0A0E5B1E001C01D92AC367E
:10019000B207E1F70E94D0000C94980A0C9400007A
:1001A00000D000D0CDB7DEB70E94270184E191E0F6
:1001B0000E9429058091100190911101A0911201D6
:1001C000B0911301BC01CD010E9435058FE191E092
:1001D0000E94290581E291E00E9429058091640135
:1001E00090916501A0916601B0916701BC01CD01BC
:1001F0000E9435058FE191E00E9429058DE291E092
:100200000E9429058091540190915501A0915601B9
:10021000B0915701BC01CD010E9435058FE191E0FD
:100220000E9429058CE391E00E94290580916001DC
:1002300090916101A0916201B0916301BC01CD0177
:100240000E9435058CE491E00E942905AFCF0E9401
:10025000E5040E9412050E9453040E9445040E9476
:100260003D010E9496032FEF81EE94E021508040E3
:100270009040E1F700C00000089582E08093810083
:1002800081E080936F0088E79CEE909385008093D7
:100290008400789408951F920F920FB60F92112444
:1002A0002F923F924F925F926F927F928F929F9286
:1002B000AF92BF92CF92DF92EF92FF920F931F9374
:1002C0002F933F934F935F936F937F938F939F935E
:1002D000AF93BF93EF93FF93CF93DF93CDB7DEB789
:1002E0002C97DEBFCDBF88E79CEE9093850080936E
:1002F00084008091100190911101A0911201B091A0
:1003000013018D839E83AF83B8879C01AD0160E0AC
:1003100070E08AEF93E40E9498058B018C879B879D
:10032000CB01AC85BB858093540190935501A0937C
:100330005601B093570120916001309161014091C5
:1003400062015091630109831A83AB83BC83698185
:100350007A818B819C810E9499056B017C01CB0184
:10036000D7018093600190936101A0936201B093E3
:100370006301209158013091590140915A015091E7
:100380005B0169817A818B819C810E9498054B0178
:100390005C01CB01D50180935C0190935D01A0933A
:1003A0005E01B0935F01C801AC85BB8580935801A5
:1003B00090935901A0935A01B0935B0140900001C2
:1003C000509001016090020170900301209108019A
:1003D0003091090140910A0150910B01C982DA82E2
:1003E000EB82FC8269817A818B819C810E94620709
:1003F000A301920169837A838B839C8369817A81CB
:100400008B819C810E9462071B0189879A872091BA
:100410000C0130910D0140910E0150910F010983A3
:100420001A839C859B83AB85AC8369817A818B81A0
:100430009C810E9462079B01AC0129823A82B985A6
:10044000BB838A858C8369817A818B819C810E94A0
:1004500099058B018A8799872091040130910501C4
:10046000409106015091070189829A82AB82BC8239
:1004700069817A818B819C810E946207A30192012C
:1004800069837A838B839C8369817A818B819C8148
:100490000E940A069B01AC0109831A839A859B83FB
:1004A000A985AC8369817A818B819C810E949905A1
:1004B0008B018A87998720E030E048E453E4698320
:1004C0001A838B839C8369817A818B819C810E94B2
:1004D0005D0718160CF4A0C020E030E048E453ECAF
:1004E00069817A818B819C810E94050687FD9BC072
:1004F000C801AA85B9858093640190936501A09392
:100500006601B093670120E030E543E457E4C98217
:10051000DA82EB82FC8269817A818B819C810E94E4
:100520005D07181664F020E030E543E457EC69817C
:100530007A818B819C810E94050687FF08C01092FA
:10054000600110926101109262011092630120E03B
:1005500030E046E154E46D817E818F8198850E9470
:100560005D07181684F410926401109265011092D0
:100570006601109267011092600110926101109261
:100580006201109263016091640170916501809134
:100590006601909167010E947C06862F0E9450049C
:1005A000909153019983609154017091550180910C
:1005B0005601909157010E947C06A981A617D0F59B
:1005C000AF5FA09353012C960FB6F894DEBF0FBE19
:1005D000CDBFDF91CF91FF91EF91BF91AF919F91EF
:1005E0008F917F916F915F914F913F912F911F91CB
:1005F0000F91FF90EF90DF90CF90BF90AF909F90C2
:100600008F907F906F905F904F903F902F900F90C2
:100610000FBE0F901F90189500E010E098E49A87A5
:10062000A3E4A98765CF00E010E0B8E4BA8783E4CB
:1006300089875ECF109253018091520180935101BE
:1006400080E080935001813130F0809152018E5FC3
:1006500080935201B8CF80915101805F8093510106
:1006600062E00E949903809150018F5FEACF289A3F
:1006700028980895289A000000000000000000005B
:100680000000000028980895EF92FF920F931F93A7
:10069000CF93DF93E82EF62E042FC8E0D0E010E8C9
:1006A0008E2D8123882339F10E943A0316952197D4
:1006B0002097B1F7C8E0D0E010E88F2D8123882380
:1006C000E9F00E943A03169521972097B1F7C8E008
:1006D000D0E010E8802F8123882399F00E943A030C
:1006E000169521972097B1F7DF91CF911F910F9128
:1006F000FF90EF9008950E943703D8CF0E943703F0
:10070000E2CF0E943703ECCFCF93C1E140E060E03D
:1007100080E00E944403C150C111F8CF8FE19EE4F4
:100720000197F1F700C00000CF910895209A0C9432
:100730008403CF93DF930F92CDB7DEB7282F6230BB
:1007400009F46CC0A8F4E82FF0E0611145C08635CB
:10075000B0F485E590E08E1B9F0B66E070E00E9490
:100760008405462F822F66E00E946405682F45C0ED
:10077000633009F465C00F90DF91CF9108958B3AF3
:10078000B8F0CF018B5A910926E030E0B9010E9400
:100790008405462F8FEF90E08E1B9F0BB9010E94BE
:1007A0008405862F60E00F90DF91CF910C94440375
:1007B0008BEA90E08E1B9F0B26E030E0B9010E948F
:1007C00084056983CF0186559109B9010E9484058A
:1007D000862F40E06981E7CF863588F485E590E093
:1007E0008E1B9F0B63E070E00E948405462F8BEA0E
:1007F000289F812D1124682F669580E0D4CF8B3AF5
:1008000030F0CF018B5A910923E030E0BFCF8BEA63
:1008100090E08E1B9F0B23E030E0D0CF45E5481BD6
:10082000682F863550F38B3A28F045E5480F60E095
:100830008095B9CF6BEA681B40E08AEA820FB3CF9C
:10084000682F70E0880F820F263540F425E530E0F0
:10085000261B370B422F440F420F88CF2B3A58F0FC
:100860004FEF480F8FEF90E0861B970B982F990F53
:1008700060E0890F98CF4BEA50E0461B570B642F7E
:10088000660F640F40E082508ECF8AB188678AB9C4
:100890008BB188618BB983EA84BD82E085BD089500
:1008A00018BC87BD08958BEC80937A0080E4809318
:1008B0007C00789408951F920F920FB60F92112426
:1008C000EF92FF920F931F932F933F934F935F935A
:1008D0006F937F938F939F93AF93BF93EF93FF9308
:1008E000CF93DF9300D000D0CDB7DEB72091780052
:1008F000298380917900A22FB82FBA83A983B0935E
:100900006901A093680124EA30E74DE75FE3609155
:1009100010017091110180911201909113010E94B8
:1009200062077B018C01A981BA81CD01A0E0B0E012
:1009300089839A83AB83BC83BC01CD010E94AB0643
:1009400020E037ED43E25CE369837A838B839C8309
:1009500069817A818B819C810E9462079B01AC0135
:10096000E982FA820B831C8369817A818B819C8165
:100970000E949905609310017093110180931201F8
:100980009093130180E480937C00EAE7F0E080819B
:10099000806480830F900F900F900F90DF91CF9124
:1009A000FF91EF91BF91AF919F918F917F916F9147
:1009B0005F914F913F912F911F910F91FF90EF9079
:1009C0000F900FBE0F901F901895259A82E080938C
:1009D000B10081E080937000789408951F921FB653
:1009E0001F9211242F938F939F9380916A0190916E
:1009F0006B01823A27E0920760F4019690936B01B5
:100A000080936A019F918F912F911F901FBE1F901D
:100A1000189510926B0110926A0185B190E28927B6
:100A200085B9F0CFE1ECF0E0808188618083E2EC71
:100A3000F0E08081866080831092C50083E380931C
:100A4000C40008959091C00095FFFCCF8093C6002C
:100A50000895CF93DF93EC018991811103C0DF9159
:100A6000CF9108950E942205F7CF0F931F93CF9344
:100A7000DF93CDB7DEB7A2970FB6F894DEBF0FBEF7
:100A8000CDBF8E010B5E1F4F23E045E06F8F78A333
:100A900089A39AA36F8D78A189A19AA10E94CF07FB
:100AA000B801CE0101960E94FC07CE0101960E947A
:100AB0002905A2960FB6F894DEBF0FBECDBFDF9119
:100AC000CF911F910F910895991B79E004C0991F50
:100AD000961708F0961B881F7A95C9F78095089598
:100AE000AA1BBB1B51E107C0AA1FBB1FA617B70754
:100AF00010F0A61BB70B881F991F5A95A9F7809570
:100B00009095BC01CD01089597FB072E16F4009433
:100B100007D077FD09D00E94700507FC05D03EF490
:100B2000909581959F4F0895709561957F4F089599
:100B30005058BB27AA270E94B0050C9423070E9497
:100B4000150738F00E941C0720F039F49F3F19F474
:100B500026F40C9412070EF4E095E7FB0C940C07B6
:100B6000E92F0E94340758F3BA1762077307840706
:100B7000950720F079F4A6F50C9456070EF4E0954D
:100B80000B2EBA2FA02D0B01B90190010C01CA0147
:100B9000A0011124FF27591B99F0593F50F4503EF2
:100BA00068F11A16F040A22F232F342F4427585FE4
:100BB000F3CF469537952795A795F0405395C9F7FC
:100BC0007EF41F16BA0B620B730B840BBAF09150B4
:100BD000A1F0FF0FBB1F661F771F881FC2F70EC053
:100BE000BA0F621F731F841F48F487957795679526
:100BF000B795F7959E3F08F0B0CF9395880F08F012
:100C00009927EE0F9795879508950E94E80608F4B6
:100C100081E008950E941E060C9423070E941C0781
:100C200058F00E94150740F029F45F3F29F00C941A
:100C30000C0751110C9457070C9412070E943407AB
:100C400068F39923B1F3552391F3951B550BBB27FB
:100C5000AA2762177307840738F09F5F5F4F220F40
:100C6000331F441FAA1FA9F335D00E2E3AF0E0E837
:100C700032D091505040E695001CCAF72BD0FE2F81
:100C800029D0660F771F881FBB1F26173707480715
:100C9000AB07B0E809F0BB0B802DBF01FF279358CD
:100CA0005F4F3AF09E3F510578F00C940C070C947E
:100CB00057075F3FE4F3983ED4F3869577956795A1
:100CC000B795F7959F5FC9F7880F911D9695879502
:100CD00097F90895E1E0660F771F881FBB1F621721
:100CE00073078407BA0720F0621B730B840BBA0BDF
:100CF000EE1F88F7E09508950E943C0788F09F5703
:100D000098F0B92F9927B751B0F0E1F0660F771F2F
:100D1000881F991F1AF0BA95C9F714C0B13091F025
:100D20000E945607B1E008950C945607672F782F5C
:100D30008827B85F39F0B93FCCF3869577956795EA
:100D4000B395D9F73EF490958095709561957F4F56
:100D50008F4F9F4F0895E89409C097FB3EF49095FC
:100D60008095709561957F4F8F4F9F4F9923A9F084
:100D7000F92F96E9BB279395F69587957795679513
:100D8000B795F111F8CFFAF4BB0F11F460FF1BC057
:100D90006F5F7F4F8F4F9F4F16C0882311F096E9EA
:100DA00011C0772321F09EE8872F762F05C0662398
:100DB00071F096E8862F70E060E02AF09A95660F51
:100DC000771F881FDAF7880F9695879597F908950A
:100DD000990F0008550FAA0BE0E8FEEF161617064C
:100DE000E807F907C0F012161306E407F50798F0B4
:100DF000621B730B840B950B39F40A2661F0232BCD
:100E0000242B252B21F408950A2609F4A140A69548
:100E10008FEF811D811D089597F99F6780E870E02D
:100E200060E008959FEF80EC089500240A94161660
:100E3000170618060906089500240A9412161306C8
:100E4000140605060895092E0394000C11F4882356
:100E500052F0BB0F40F4BF2B11F460FF04C06F5F72
:100E60007F4F8F4F9F4F089557FD9058440F551F48
:100E700059F05F3F71F04795880F97FB991F61F01C
:100E80009F3F79F087950895121613061406551F93
:100E9000F2CF4695F1DF08C0161617061806991FFF
:100EA000F1CF86957105610508940895E894BB27F4
:100EB00066277727CB0197F908950E94E80608F482
:100EC0008FEF08950E9475070C9423070E94150761
:100ED00038F00E941C0720F0952311F00C940C07A9
:100EE0000C94120711240C9457070E94340770F3D6
:100EF000959FC1F3950F50E0551F629FF001729FBF
:100F0000BB27F00DB11D639FAA27F00DB11DAA1FCD
:100F1000649F6627B00DA11D661F829F2227B00D1A
:100F2000A11D621F739FB00DA11D621F839FA00DA5
:100F3000611D221F749F3327A00D611D231F849FF5
:100F4000600D211D822F762F6A2F11249F5750404C
:100F50009AF0F1F088234AF0EE0FFF1FBB1F661FC7
:100F6000771F881F91505040A9F79E3F510580F090
:100F70000C940C070C9457075F3FE4F3983ED4F3AE
:100F8000869577956795B795F795E7959F5FC1F734
:100F9000FE2B880F911D9695879597F90895EF92EE
:100FA0000F931F93CF93DF9300D000D00F92CDB754
:100FB000DEB7322F0D8354E047FD54E1242F27FD87
:100FC0002195E52E032F4D81512F69837A838B83E1
:100FD0009C8369817A818B819C810E9403088D8129
:100FE000912F0F900F900F900F900F90DF91CF9156
:100FF0001F910F91EF900895FB01DC0101900D927C
:101000000020E1F70895ADE0B0E0E9E0F8E00C94ED
:10101000620A6A01722E602EFE2C102F2BE320171D
:1010200008F41BE31F5F012F27E0AE014F5F5F4F06
:101030006A877B878C879D876A857B858C859D8564
:101040000E9482094C010981902F9970802F88702D
:101050003F2D3071913039F4882309F4FAC07DE2D4
:10106000A72E84E0BBC0B82EF1FCADC04F2D41705F
:10107000A42E442309F477C08111ACC002FDF0C056
:10108000F0E23F2E540197FE02C0A12CB12C41E0AA
:1010900050E0311002C040E050E0C5010196840FDD
:1010A000951F462C512CA2014F5F5F4F611002C06B
:1010B00040E050E0840F951F472D50E0272D281B5E
:1010C000841795070CF020E03601FFEF6F1A7F0AB6
:1010D000332309F4CCC0332019F0D6013C926301CC
:1010E000180D3A81802F8071882319F0313309F46B
:1010F000115011160CF0E7C0193008F018E0F40197
:10110000EA19FB0941E050E04C0F5D1FE40FF51FA9
:10111000A401411B51095194419451087EE28A1463
:101120009B040CF4D2C04A155B050CF0CEC0918133
:10113000B1E0AB1AB10836016FEF661A760A319644
:10114000A414B5040CF4C3C0D6019C93BFEFAB1636
:10115000BB0639F4360162E0660E711CD6011196A9
:101160007C936301DCCF811138C0502F5470352E31
:10117000552309F487CF83E0E72CE81A871508F098
:10118000E12C31110BC00E2D10E0A80160E270E0DF
:10119000C6010E945A0AC00ED11EE12CBB2019F0D4
:1011A000F601B1926F0186010D5F1F4F29E69EE6A1
:1011B00086E6F2FE03C029E49EE486E4F60120837D
:1011C0009183828332C0811141C002FD4DC0EBE2A8
:1011D0003E2E58CF60E2A62E44CF83E0E72CE81ADB
:1011E000871508F0E12C31110BC00E2D10E0A8017D
:1011F00060E270E0C6010E945A0AC00ED11EE12CC6
:10120000AA2019F0F601A1926F0186010D5F1F4F10
:1012100091E68EE6F2FE02C091E48EE4D6018C9354
:1012200011969C93119712968C93F12CA70160E272
:1012300070E0C8010E945A0AF801EE0DFF1D1082ED
:101240008EEF9FEF2D96E1E10C947E0A5BE2A52ED6
:1012500008CF4DE2B42E02FD05C08DE2382E12CF2C
:1012600020E2B22E84E088CF9BE2B92EFBCFF3FCC4
:1012700018C0E22EF12CA70160E270E0C6010E94C6
:101280005A0A36016E0C7F1C20E0332071F0FFEF0C
:10129000EF1AFF0AD3013C9220E036016E0C7F1C4E
:1012A00004C0332071F0F6013082C22ED12CA60189
:1012B00060E370E0C3010E945A0AC60CD71C20E00C
:1012C0000FCF3601F2CF11E01ACF90E331CF8A145D
:1012D0009B0439F4363320F4353319F4811101C0FD
:1012E00091E3F6019083E22EF12CA70160E270E019
:1012F000C3010E945A0AF301EE0DFF1D108280E027
:1013000090E0A0CF283008F027E03327DA01990FCA
:10131000311D87FD916000966105710539F43260D9
:101320002E5F3D9330E32A95E1F708959F3F30F01B
:1013300080387105610509F03C5F3C5F3D93913059
:1013400008F08068911DDF93CF931F930F93FF9256
:10135000EF92192F987F9695E92F96959695E90F1C
:10136000FF27EE53FF4F99273327EE24FF24A701D1
:10137000E70105900894079428F4360FE71EF81E3D
:10138000491F511D660F771F881F991F0694A1F7EB
:101390000590079428F4E70EF81E491F561FC11D3B
:1013A000770F881F991F661F0694A1F70590079471
:1013B00028F4F80E491F561FC71FD11D880F991F0B
:1013C000661F771F0694A1F70590079420F4490F34
:1013D000561FC71FD81F990F661F771F881F0694B7
:1013E000A9F784911095177041F0D695C795579538
:1013F0004795F794E7941A95C1F7E8E6F0E068940A
:101400001590159135916591959105907FE27395B1
:10141000E118F10A430B560BC90BD009C0F7E10CD8
:10142000F11E431F561FC91FD01D7EF4703311F4E7
:101430008A95E6CFE894015030F0080F0AF40027AF
:10144000021708F4202F2395022F7A3328F079E32E
:101450007D932A95E9F710C07D932A9589F6069425
:1014600097956795379517951794E118F10A430BEF
:10147000560BC90BD00998F023957E9173957A335A
:1014800008F070E37C932013B8F77E9170617D9330
:1014900030F0839571E37D9370E32A95E1F7112491
:1014A000EF90FF900F911F91CF91DF91992787FDCA
:1014B00090950895DC0101C06D9341505040E0F7D4
:1014C00008952F923F924F925F926F927F928F92E8
:1014D0009F92AF92BF92CF92DF92EF92FF920F93C3
:1014E0001F93CF93DF93CDB7DEB7CA1BDB0B0FB6CD
:1014F000F894DEBF0FBECDBF09942A88398848888A
:101500005F846E847D848C849B84AA84B984C8841F
:10151000DF80EE80FD800C811B81AA81B981CE0F16
:10152000D11D0FB6F894DEBF0FBECDBFED010895FB
:04153000F894FFCF5D
:101534000AD7233B0000803E0000E03F3333733F73
:101544000000FA43706F7456616C75653A200009A7
:10155400007069644F75747075743A200065727216
:101564006F7243757272656E743A20006572726FA1
:1015740072496E74656772616C3A20000D0A00004E
:00000001FF
