:100000000C94B1000C94CE000C94CE000C94CE0055
:100010000C94CE000C94CE000C94CE000C94CE0028
:100020000C94CE000C948A060C94CE000C94CE0056
:100030000C94CE000C943D010C94CE000C94CE0098
:100040000C94CE000C94CE000C94CE000C94CE00F8
:100050000C94CE000C94F7050C94CE000C94CE00BA
:100060000C94CE000C94CE0000407A10F35A00A0FD
:10007000724E18090010A5D4E80000E87648170071
:1000800000E40B54020000CA9A3B000000E1F505B1
:10009000000080969800000040420F000000A086FB
:1000A00001000000102700000000E803000000002D
:1000B0006400000000000A000000000001000000D1
:1000C00000002C76D888DC674F0823DFC1DFAE59EB
:1000D000E1B1B796E5E3E453C63AE651997696E87E
:1000E000E6C28426EB898C9B62ED407C6FFCEFBC02
:1000F0009C9F40F2BAA56FA5F490055A2AF75C932D
:100100006B6CF9676DC11BFCE0E40D47FEF520E662
:10011000B500D0ED902E0300943577050080841E45
:10012000080000204E0A000000C80C333333330FA0
:10013000986E12831141EF8D2114893BE65516CF3D
:10014000FEE6DB18D1844B381BF77C1D901DA4BB49
:10015000E424203284725E228100C9F124ECA1E5FE
:100160003D2711241FBECFEFD8E0DEBFCDBF11E089
:10017000A0E0B1E0ECE6F8E102C005900D92A636F1
:10018000B107D9F721E0A6E6B1E001C01D92A5387C
:10019000B207E1F70E94D0000C94340C0C940000DC
:1001A00000D000D0CDB7DEB70E9427018BE291E0EE
:1001B0000E94C5068091100190911101A091120139
:1001C000B0911301BC01CD010E94D10686E391E0FC
:1001D0000E94C50688E391E00E94C50680917D01DA
:1001E00090917E01A0917F01B0918001BC01CD0171
:1001F0000E94D10686E391E00E94C50684E491E066
:100200000E94C50680916D0190916E01A0916F01D1
:10021000B0917001BC01CD010E94D10686E391E04E
:100220000E94C50683E591E00E94C5068091790190
:1002300090917A01A0917B01B0917C01BC01CD012C
:100240000E94D10683E691E00E94C506AFCF0E94CE
:1002500081060E94AE060E94EF050E94E1050E9401
:10026000C5040E9432052FEF81EE94E021508040BA
:100270009040E1F700C0000008951F920F920FB662
:100280000F9211240F931F932F933F934F935F93DC
:100290006F937F938F939F93AF93BF93EF93FF934E
:1002A000CF93DF93CDB7DEB7C858D109DEBFCDBF3E
:1002B00084E890E028E73CEEDC0111963C932E9315
:1002C0008091100190911101A0911201B091130140
:1002D0009C01AD0160E070E085EF93E40E9434077B
:1002E00065966CAF7DAF8EAF9FAF659765968CAD11
:1002F0009DADAEADBFAD659780936D0190936E01DE
:10030000A0936F01B09370012091790130917A012F
:1003100040917B0150917C0129833A834B835C831C
:1003200080916D0190916E01A0916F01B09170016B
:100330009C01AD0169817A818B819C810E94350786
:1003400069966CAF7DAF8EAF9FAF699769968CADA4
:100350009DADAEADBFAD69978093790190937A0161
:10036000A0937B01B0937C018091790190917A01F7
:10037000A0917B01B0917C018D839E83AF83B88770
:1003800020E030E543E457E46D817E818F819885DC
:100390000E94F908882309F0C4F420917901309172
:1003A0007A0140917B0150917C0129873A874B87E4
:1003B0005C8720E030E543E457EC69857A858B85DE
:1003C0009C850E94A107882394F5809179019091E2
:1003D0007A01A0917B01B0917C018D879E87AF87C8
:1003E000B88B20E030E543E457E46D857E858F854A
:1003F00098890E94F908882371F06CF080E090E5FC
:10040000A3E4B7E48093790190937A01A0937B01F0
:10041000B0937C010CC080E090E5A3E4B7EC80933E
:10042000790190937A01A0937B01B0937C01209194
:100430006D0130916E0140916F0150917001298BD7
:100440003A8B4B8B5C8B8091710190917201A091E2
:100450007301B09174019C01AD0169897A898B891E
:100460009C890E9434076D966CAF7DAF8EAF9FAFB5
:100470006D976D968CAD9DADAEADBFAD6D97809314
:10048000750190937601A0937701B09378018091E4
:100490006D0190916E01A0916F01B09170018093F8
:1004A000710190937201A0937301B09374018091D4
:1004B0000C0190910D01A0910E01B0910F018D8B57
:1004C0009E8BAF8BB88F80916D0190916E01A09142
:1004D0006F01B09170019C01AD016D897E898F899A
:1004E000988D0E94FE08A1966CAF7DAF8EAF9FAF36
:1004F000A197A1962CAD3DAD4EAD5FADA197298FD3
:100500003A8F4B8F5C8F8091080190910901A091E7
:100510000A01B0910B018D8F9E8FAF8FB8A3809190
:10052000790190917A01A0917B01B0917C019C01AD
:10053000AD016D8D7E8D8F8D98A10E94FE08A596D0
:100540006CAF7DAF8EAF9FAFA597A5962CAD3DAD9F
:100550004EAD5FADA59729A33AA34BA35CA38091B1
:10056000000190910101A0910201B09103019C0151
:10057000AD0169A17AA18BA19CA10E94FE08A99658
:100580006CAF7DAF8EAF9FAFA997A9968CAD9DAD97
:10059000AEADBFADA9979C01AD01698D7A8D8B8DF4
:1005A0009C8D0E943507AD966CAF7DAF8EAF9FAF2F
:1005B000AD97AD968CAD9DADAEADBFADAD978DA3F6
:1005C0009EA3AFA3B8A720910401309105014091EB
:1005D00006015091070129A73AA74BA75CA7809174
:1005E000750190917601A0917701B09178019C01FD
:1005F000AD0169A57AA58BA59CA50E94FE08E19690
:100600006CAF7DAF8EAF9FAFE197E1968CAD9DADA6
:10061000AEADBFADE1978DA79EA7AFA7B8AB809158
:10062000000190910101A0910201B09103019C0190
:10063000AD016DA57EA58FA598A90E94A607E59698
:100640006CAF7DAF8EAF9FAFE597E5968CAD9DAD5E
:10065000AEADBFADE5979C01AD016DA17EA18FA1AF
:1006600098A50E943507E9966CAF7DAF8EAF9FAF1E
:10067000E997E9968CAD9DADAEADBFADE99780939E
:100680007D0190937E01A0937F01B0938001209122
:100690007D0130917E0140917F015091800129AB15
:1006A0003AAB4BAB5CAB20E030E04FE753E469A9D9
:1006B0007AA98BA99CA90E94F908882309F0C4F49F
:1006C00080917D0190917E01A0917F01B091800188
:1006D0008DAB9EABAFABB8AF20E030E04FE753EC53
:1006E0006DA97EA98FA998AD0E94A107882364F403
:1006F00080E090E0AFE7B3E480937D0190937E01CA
:10070000A0937F01B09380012091100130911101DD
:10071000409112015091130129AF3AAF4BAF5CAF3A
:1007200020E030E046E154E469AD7AAD8BAD9CAD9C
:100730000E94F908882371F06CF090916C0181E0BF
:100740008927882339F081E080936C0184E191E06E
:100750000E94C50680916C018823F9F080916A019E
:1007600090916B019C012F5F3F4F30936B01209361
:100770006A018F3C37E0930709F048F410927D013D
:1007800010927E0110927F011092800106C010929B
:100790006B0110926A0110926C0180917D01909121
:1007A0007E01A0917F01B091800121968CAF9DAF19
:1007B000AEAFBFAF219721966CAD7DAD8EAD9FAD35
:1007C00021970E941808ED966CAF7DAF8EAF9FAF5A
:1007D000ED97EA968FADEA970E94EC05809166014D
:1007E000082F10E020916D0130916E0140916F0152
:1007F0005091700125962CAF3DAF4EAF5FAF25975E
:1008000020E030E0A90125966CAD7DAD8EAD9FADA9
:1008100025970E94F90888232CF180916D01909111
:100820006E01A0916F01B091700129968CAF9DAFC0
:10083000AEAFBFAF299729966CAD7DAD8EAD9FADA4
:1008400029970E941808C358DF4F688379838A83E9
:100850009B83CD57D040EE968FADEE978695882F2F
:1008600090E04AC080916D0190916E01A0916F015E
:10087000B09170019C01AD0150582D962CAF3DAF49
:100880004EAF5FAF2D9720E030E040E050E42D9672
:100890006CAD7DAD8EAD9FAD2D970E94A607CF5755
:1008A000DF4F688379838A839B83C158D040CF57B9
:1008B000DF4F88819981AA81BB81C158D040619660
:1008C0008CAF9DAFAEAFBFAF619761966CAD7DADA4
:1008D0008EAD9FAD61970E941808CB57DF4F68839C
:1008E00079838A839B83C558D040CB57DF4F88815B
:1008F000C558D040882F90E08017910739F034F028
:10090000809166018F5F8093660122C0109266011C
:100910008091670180936801109269010FC08091F6
:100920006801805F809368018091680162E00E94A5
:100930003505809169018F5F80936901809169011C
:10094000803169F360F3809167018E5F8093670166
:100950000000C857DF4F0FB6F894DEBF0FBECDBF03
:10096000DF91CF91FF91EF91BF91AF919F918F91C7
:100970007F916F915F914F913F912F911F910F91B7
:100980000F900FBE0F901F90189582E0809381000A
:1009900081E080936F0088E79CEE909385008093C0
:1009A000840078940895289A28980895289A000039
:1009B00000000000000000000000000028980895DA
:1009C000EF92FF920F931F93CF93DF93E82EF62EB3
:1009D000042FC8E0D0E010E88E2D8123882339F160
:1009E0000E94D604169521972097B1F7C8E0D0E071
:1009F00010E88F2D81238823E9F00E94D6041695F4
:100A000021972097B1F7C8E0D0E010E8802F81232C
:100A1000882399F00E94D604169521972097B1F764
:100A2000DF91CF911F910F91FF90EF9008950E9459
:100A3000D304D8CF0E94D304E2CF0E94D304ECCFDA
:100A4000CF93C1E140E060E080E00E94E004C1504B
:100A5000C111F8CF8FE19EE40197F1F700C00000CB
:100A6000CF910895209A0C942005CF93DF930F9295
:100A7000CDB7DEB7282F623009F46CC0A8F4E82F98
:100A8000F0E0611145C08635B0F485E590E08E1B3D
:100A90009F0B66E070E00E942007462F822F66E0E1
:100AA0000E940007682F45C0633009F465C00F90AD
:100AB000DF91CF9108958B3AB8F0CF018B5A91090D
:100AC00026E030E0B9010E942007462F8FEF90E02A
:100AD0008E1B9F0BB9010E942007862F60E00F90AC
:100AE000DF91CF910C94E0048BEA90E08E1B9F0B7A
:100AF00026E030E0B9010E9420076983CF018655C6
:100B00009109B9010E942007862F40E06981E7CF53
:100B1000863588F485E590E08E1B9F0B63E070E0DE
:100B20000E942007462F8BEA289F812D1124682FD1
:100B3000669580E0D4CF8B3A30F0CF018B5A910983
:100B400023E030E0BFCF8BEA90E08E1B9F0B23E0C9
:100B500030E0D0CF45E5481B682F863550F38B3AFF
:100B600028F045E5480F60E08095B9CF6BEA681B37
:100B700040E08AEA820FB3CF682F70E0880F820FBF
:100B8000263540F425E530E0261B370B422F440F75
:100B9000420F88CF2B3A58F04FEF480F8FEF90E07D
:100BA000861B970B982F990F60E0890F98CF4BEA1F
:100BB00050E0461B570B642F660F640F40E08250D5
:100BC0008ECF8AB188678AB98BB188618BB983EA85
:100BD00084BD82E085BD089518BC87BD08958BEC67
:100BE00080937A0080E480937C00789408951F922B
:100BF0000F920FB60F921124EF92FF920F931F9353
:100C00002F933F934F935F936F937F938F939F9314
:100C1000AF93BF93EF93FF93CF93DF9300D000D0B8
:100C2000CDB7DEB720917800298380917900A22F7B
:100C3000B82FBA83A983B0938201A093810124EADB
:100C400030E74DE75FE360911001709111018091F1
:100C50001201909113010E94FE087B018C01A98171
:100C6000BA81CD01A0E0B0E089839A83AB83BC83D5
:100C7000BC01CD010E94470820E037ED43E25CE370
:100C800069837A838B839C8369817A818B819C8140
:100C90000E94FE089B01AC01E982FA820B831C834F
:100CA00069817A818B819C810E9435076093100154
:100CB00070931101809312019093130180E480934B
:100CC0007C00EAE7F0E08081806480830F900F90E1
:100CD0000F900F90DF91CF91FF91EF91BF91AF9166
:100CE0009F918F917F916F915F914F913F912F9144
:100CF0001F910F91FF90EF900F900FBE0F901F90DC
:100D00001895259A82E08093B10081E0809370006D
:100D1000789408951F921FB61F9211242F938F93DA
:100D20009F938091830190918401823A27E09207FA
:100D300060F4019690938401809383019F918F9139
:100D40002F911F901FBE1F90189510928401109232
:100D5000830185B190E2892785B9F0CFE1ECF0E01D
:100D6000808188618083E2ECF0E08081866080830E
:100D70001092C50083E38093C40008959091C00051
:100D800095FFFCCF8093C6000895CF93DF93EC01CD
:100D90008991811103C0DF91CF9108950E94BE0611
:100DA000F7CF0F931F93CF93DF93CDB7DEB7A29703
:100DB0000FB6F894DEBF0FBECDBF8E010B5E1F4F86
:100DC00023E045E06F8F78A389A39AA36F8D78A164
:100DD00089A19AA10E946B09B801CE0101960E94D7
:100DE0009809CE0101960E94C506A2960FB6F89406
:100DF000DEBF0FBECDBFDF91CF911F910F91089540
:100E0000991B79E004C0991F961708F0961B881F5C
:100E10007A95C9F780950895AA1BBB1B51E107C0BD
:100E2000AA1FBB1FA617B70710F0A61BB70B881F7A
:100E3000991F5A95A9F780959095BC01CD01089509
:100E400097FB072E16F4009407D077FD09D00E9477
:100E50000C0707FC05D03EF4909581959F4F0895AF
:100E6000709561957F4F08955058BB27AA270E941F
:100E70004C070C94BF080E94B10838F00E94B808D3
:100E800020F039F49F3F19F426F40C94AE080EF4C8
:100E9000E095E7FB0C94A808E92F0E94D00858F3CE
:100EA000BA17620773078407950720F079F4A6F54F
:100EB0000C94F2080EF4E0950B2EBA2FA02D0B0126
:100EC000B90190010C01CA01A0011124FF27591B8F
:100ED00099F0593F50F4503E68F11A16F040A22F95
:100EE000232F342F4427585FF3CF46953795279506
:100EF000A795F0405395C9F77EF41F16BA0B620B05
:100F0000730B840BBAF09150A1F0FF0FBB1F661F4B
:100F1000771F881FC2F70EC0BA0F621F731F841F8E
:100F200048F4879577956795B795F7959E3F08F0B4
:100F3000B0CF9395880F08F09927EE0F9795879576
:100F400008950E94840808F481E008950E94BA0779
:100F50000C94BF080E94B80858F00E94B10840F0F5
:100F600029F45F3F29F00C94A80851110C94F30860
:100F70000C94AE080E94D00868F39923B1F355236E
:100F800091F3951B550BBB27AA276217730784079C
:100F900038F09F5F5F4F220F331F441FAA1FA9F332
:100FA00035D00E2E3AF0E0E832D091505040E69520
:100FB000001CCAF72BD0FE2F29D0660F771F881F81
:100FC000BB1F261737074807AB07B0E809F0BB0B74
:100FD000802DBF01FF2793585F4F3AF09E3F510588
:100FE00078F00C94A8080C94F3085F3FE4F3983E63
:100FF000D4F3869577956795B795F7959F5FC9F771
:10100000880F911D9695879597F90895E1E0660FF1
:10101000771F881FBB1F621773078407BA0720F06A
:10102000621B730B840BBA0BEE1F88F7E0950895D3
:101030000E94D80888F09F5798F0B92F9927B75188
:10104000B0F0E1F0660F771F881F991F1AF0BA956C
:10105000C9F714C0B13091F00E94F208B1E00895D0
:101060000C94F208672F782F8827B85F39F0B93FC2
:10107000CCF3869577956795B395D9F73EF490951F
:101080008095709561957F4F8F4F9F4F0895E8949D
:1010900009C097FB3EF490958095709561957F4FC0
:1010A0008F4F9F4F9923A9F0F92F96E9BB2793956E
:1010B000F695879577956795B795F111F8CFFAF47E
:1010C000BB0F11F460FF1BC06F5F7F4F8F4F9F4FAF
:1010D00016C0882311F096E911C0772321F09EE80D
:1010E000872F762F05C0662371F096E8862F70E073
:1010F00060E02AF09A95660F771F881FDAF7880F4D
:101100009695879597F90895990F0008550FAA0BA2
:10111000E0E8FEEF16161706E807F907C0F012160A
:101120001306E407F50798F0621B730B840B950B0D
:1011300039F40A2661F0232B242B252B21F4089562
:101140000A2609F4A140A6958FEF811D811D0895FF
:1011500097F99F6780E870E060E008959FEF80EC6A
:10116000089500240A94161617061806090608950D
:1011700000240A9412161306140605060895092E73
:101180000394000C11F4882352F0BB0F40F4BF2BE2
:1011900011F460FF04C06F5F7F4F8F4F9F4F089522
:1011A00057FD9058440F551F59F05F3F71F0479518
:1011B000880F97FB991F61F09F3F79F087950895FD
:1011C000121613061406551FF2CF4695F1DF08C01C
:1011D000161617061806991FF1CF86957105610539
:1011E00008940895E894BB2766277727CB0197F9E1
:1011F00008950E94840808F48FEF08950E94110951
:101200000C94BF080E94B10838F00E94B80820F082
:10121000952311F00C94A8080C94AE0811240C949A
:10122000F3080E94D00870F3959FC1F3950F50E02A
:10123000551F629FF001729FBB27F00DB11D639F88
:10124000AA27F00DB11DAA1F649F6627B00DA11D2E
:10125000661F829F2227B00DA11D621F739FB00DD4
:10126000A11D621F839FA00D611D221F749F332744
:10127000A00D611D231F849F600D211D822F762FDD
:101280006A2F11249F5750409AF0F1F088234AF0BA
:10129000EE0FFF1FBB1F661F771F881F9150504026
:1012A000A9F79E3F510580F00C94A8080C94F30810
:1012B0005F3FE4F3983ED4F3869577956795B795AD
:1012C000F795E7959F5FC1F7FE2B880F911D9695C7
:1012D000879597F90895EF920F931F93CF93DF931C
:1012E00000D000D00F92CDB7DEB7322F0D8354E07F
:1012F00047FD54E1242F27FD2195E52E032F4D8135
:10130000512F69837A838B839C8369817A818B8156
:101310009C810E949F098D81912F0F900F900F90BB
:101320000F900F90DF91CF911F910F91EF90089543
:10133000FB01DC0101900D920020E1F70895ADE082
:10134000B0E0E5EAF9E00C94FE0B6A01722E602E23
:10135000FE2C102F2BE3201708F41BE31F5F012F37
:1013600027E0AE014F5F5F4F6A877B878C879D8741
:101370006A857B858C859D850E941E0B4C010981A9
:10138000902F9970802F88703F2D3071913039F4F3
:10139000882309F4FAC07DE2A72E84E0BBC0B82EF2
:1013A000F1FCADC04F2D4170A42E442309F477C049
:1013B0008111ACC002FDF0C0F0E23F2E540197FE57
:1013C00002C0A12CB12C41E050E0311002C040E03D
:1013D00050E0C5010196840F951F462C512CA201A7
:1013E0004F5F5F4F611002C040E050E0840F951FD7
:1013F000472D50E0272D281B841795070CF020E07F
:101400003601FFEF6F1A7F0A332309F4CCC0332073
:1014100019F0D6013C926301180D3A81802F80713A
:10142000882319F0313309F4115011160CF0E7C07C
:10143000193008F018E0F401EA19FB0941E050E026
:101440004C0F5D1FE40FF51FA401411B510951947E
:10145000419451087EE28A149B040CF4D2C04A15D0
:101460005B050CF0CEC09181B1E0AB1AB10836013A
:101470006FEF661A760A3196A414B5040CF4C3C053
:10148000D6019C93BFEFAB16BB0639F4360162E080
:10149000660E711CD60111967C936301DCCF81111D
:1014A00038C0502F5470352E552309F487CF83E070
:1014B000E72CE81A871508F0E12C31110BC00E2D2E
:1014C00010E0A80160E270E0C6010E94F60BC00EB9
:1014D000D11EE12CBB2019F0F601B1926F018601FB
:1014E0000D5F1F4F29E69EE686E6F2FE03C029E463
:1014F0009EE486E4F60120839183828332C08111C9
:1015000041C002FD4DC0EBE23E2E58CF60E2A62E58
:1015100044CF83E0E72CE81A871508F0E12C31115D
:101520000BC00E2D10E0A80160E270E0C6010E9421
:10153000F60BC00ED11EE12CAA2019F0F601A192E3
:101540006F0186010D5F1F4F91E68EE6F2FE02C02D
:1015500091E48EE4D6018C9311969C931197129688
:101560008C93F12CA70160E270E0C8010E94F60B99
:10157000F801EE0DFF1D10828EEF9FEF2D96E1E139
:101580000C941A0C5BE2A52E08CF4DE2B42E02FD9E
:1015900005C08DE2382E12CF20E2B22E84E088CF33
:1015A0009BE2B92EFBCFF3FC18C0E22EF12CA70171
:1015B00060E270E0C6010E94F60B36016E0C7F1CE3
:1015C00020E0332071F0FFEFEF1AFF0AD3013C92C5
:1015D00020E036016E0C7F1C04C0332071F0F60150
:1015E0003082C22ED12CA60160E370E0C3010E94BC
:1015F000F60BC60CD71C20E00FCF3601F2CF11E05E
:101600001ACF90E331CF8A149B0439F4363320F497
:10161000353319F4811101C091E3F6019083E22E74
:10162000F12CA70160E270E0C3010E94F60BF30108
:10163000EE0DFF1D108280E090E0A0CF283008F072
:1016400027E03327DA01990F311D87FD916000965D
:101650006105710539F432602E5F3D9330E32A95C0
:10166000E1F708959F3F30F080387105610509F07A
:101670003C5F3C5F3D93913008F08068911DDF93A3
:10168000CF931F930F93FF92EF92192F987F969508
:10169000E92F96959695E90FFF27EE53FF4F99276F
:1016A0003327EE24FF24A701E7010590089407944F
:1016B00028F4360FE71EF81E491F511D660F771FCD
:1016C000881F991F0694A1F70590079428F4E70E48
:1016D000F81E491F561FC11D770F881F991F661FCF
:1016E0000694A1F70590079428F4F80E491F561F99
:1016F000C71FD11D880F991F661F771F0694A1F77A
:101700000590079420F4490F561FC71FD81F990F43
:10171000661F771F881F0694A9F78491109517708C
:1017200041F0D695C79557954795F794E7941A9544
:10173000C1F7E8E6F0E06894159015913591659150
:10174000959105907FE27395E118F10A430B560BD2
:10175000C90BD009C0F7E10CF11E431F561FC91F6A
:10176000D01D7EF4703311F48A95E6CFE8940150D1
:1017700030F0080F0AF40027021708F4202F2395F1
:10178000022F7A3328F079E37D932A95E9F710C088
:101790007D932A9589F606949795679537951795C1
:1017A0001794E118F10A430B560BC90BD00998F0B6
:1017B00023957E9173957A3308F070E37C93201320
:1017C000B8F77E9170617D9330F0839571E37D93DE
:1017D00070E32A95E1F71124EF90FF900F911F918C
:1017E000CF91DF91992787FD90950895DC0101C085
:1017F0006D9341505040E0F708952F923F924F92E1
:101800005F926F927F928F929F92AF92BF92CF9290
:10181000DF92EF92FF920F931F93CF93DF93CDB799
:10182000DEB7CA1BDB0B0FB6F894DEBF0FBECDBF11
:1018300009942A88398848885F846E847D848C84E2
:101840009B84AA84B984C884DF80EE80FD800C81EB
:101850001B81AA81B981CE0FD11D0FB6F894DEBFCE
:0C1860000FBECDBFED010895F894FFCF3E
:10186C000AD7233B0000803E0000E03F3333733F38
:10187C000000F54344616E6765722C20616E676CE5
:10188C0065206578636573730D0A00706F7456611B
:10189C006C75653A200009007069644F7574707539
:1018AC00743A20006572726F7243757272656E7451
:1018BC003A20006572726F72496E74656772616C62
:0618CC003A20000D0A00A5
:00000001FF
