:100000000C9434000C9451000C9451000C94510049
:100010000C9451000C9451000C9451000C9451001C
:100020000C9451000C949A030C9451000C945100C0
:100030000C9451000C946C000C9451000C945100E1
:100040000C9451000C9451000C9451000C945100EC
:100050000C9451000C9410030C9451000C9451001A
:100060000C9451000C94510011241FBECFEFD8E026
:10007000DEBFCDBF11E0A0E0B1E0E6E5FCE002C0EC
:1000800005900D92A431B107D9F721E0A4E1B1E0C8
:1000900001C01D92AC32B207E1F70E9453000C94EC
:1000A00029060C940000209A0E944F0210E0D12FE4
:1000B000C4E1D05F62E08D2F0E946102C150C11186
:1000C000F8CF2FEF86E791E0215080409040E1F794
:1000D00000C000001E5FEBCF1F920F920FB60F9271
:1000E00011242F923F924F925F926F927F928F9244
:1000F0009F92AF92BF92CF92DF92EF92FF920F93B7
:100100001F932F933F934F935F936F937F938F939F
:100110009F93AF93BF93EF93FF93CF93DF93CDB7AD
:10012000DEB72897DEBFCDBF88E79CEE90938500B1
:1001300080938400209110013091110140911201AF
:100140005091130160E070E08AEF93E40E94F203A3
:100150008B0188879F83CB01A885BF818093140181
:1001600090931501A0931601B093170120912001DF
:1001700030912101409122015091230109831A837A
:10018000AB83BC8369817A818B819C810E94F3035C
:100190006B017C01CB01D701809320019093210159
:1001A000A0932201B09323012091180130911901ED
:1001B00040911A0150911B0169817A818B819C8148
:1001C0000E94F2034B015C01CB01D50180931C011D
:1001D00090931D01A0931E01B0931F01C801A88533
:1001E000BF818093180190931901A0931A01B093D5
:1001F0001B0140900001509001016090020170903D
:100200000301209108013091090140910A015091A8
:100210000B01C982DA82EB82FC8269817A818B814F
:100220009C810E94BC05A301920169837A838B8320
:100230009C8369817A818B819C810E94BC051B0112
:100240008D839E8320910C0130910D0140910E0110
:1002500050910F0109831A8388858B838F818C834A
:1002600069817A818B819C810E94BC059B01AC01D4
:1002700029823A828D818B838E818C8369817A81F8
:100280008B819C810E94F3038B018E839D8320913F
:1002900004013091050140910601509107018982C6
:1002A0009A82AB82BC8269817A818B819C810E9417
:1002B000BC05A301920169837A838B839C83698146
:1002C0007A818B819C810E9464049B01AC0109832B
:1002D0001A838E818B838D818C8369817A818B8156
:1002E0009C810E94F3038B018E839D8320E030E08C
:1002F00048E453E469831A838B839C8369817A8100
:100300008B819C810E94B70518160CF471C020E007
:1003100030E048E453EC69817A818B819C810E94B2
:100320005F0487FD65C0C801AE81BD818093240153
:1003300090932501A0932601B093270120E030E59A
:1003400043E457E4C982DA82EB82FC8269817A81D4
:100350008B819C810E94B705181664F020E030E57F
:1003600043E457EC69817A818B819C810E945F0410
:1003700087FF08C0109220011092210110922201E3
:100380001092230160912401709125018091260132
:10039000909127010E94D604862F0E940D03289673
:1003A0000FB6F894DEBF0FBECDBFDF91CF91FF91A6
:1003B000EF91BF91AF919F918F917F916F915F91DD
:1003C0004F913F912F911F910F91FF90EF90DF90F0
:1003D000CF90BF90AF909F908F907F906F905F90E5
:1003E0004F903F902F900F900FBE0F901F90189539
:1003F00000E010E088E48E8383E48D8394CF289A14
:1004000028980895289A00000000000000000000CD
:100410000000000028980000000000000895EF92FE
:10042000FF920F931F93CF93DF93E82EF62E042FA6
:10043000C8E0D0E010E88E2D8123882339F10E9496
:100440000202169521972097B1F7C8E0D0E010E896
:100450008F2D81238823E9F00E94020216952197AF
:100460002097B1F7C8E0D0E010E8802F81238823DF
:1004700099F00E940202169521972097B1F7DF911B
:10048000CF911F910F91FF90EF9008950E94FF016F
:10049000D8CF0E94FF01E2CF0E94FF01ECCFCF93A3
:1004A000C4E140E060E080E00E940F02C150C11151
:1004B000F8CF8FE19EE40197F1F700C00000CF91E3
:1004C0000895CF93DF930F92CDB7DEB7282F623018
:1004D00009F46CC0A8F4E82FF0E0611145C086353E
:1004E000B0F485E590E08E1B9F0B66E070E00E9403
:1004F000DE03462F822F66E00E94BE03682F45C0B0
:10050000633009F465C00F90DF91CF9108958B3A65
:10051000B8F0CF018B5A910926E030E0B9010E9472
:10052000DE03462F8FEF90E08E1B9F0BB9010E94D8
:10053000DE03862F60E00F90DF91CF910C940F02C5
:100540008BEA90E08E1B9F0B26E030E0B9010E9401
:10055000DE036983CF0186559109B9010E94DE034C
:10056000862F40E06981E7CF863588F485E590E005
:100570008E1B9F0B63E070E00E94DE03462F8BEA28
:10058000289F812D1124682F669580E0D4CF8B3A67
:1005900030F0CF018B5A910923E030E0BFCF8BEAD6
:1005A00090E08E1B9F0B23E030E0D0CF45E5481B49
:1005B000682F863550F38B3A28F045E5480F60E008
:1005C0008095B9CF6BEA681B40E08AEA820FB3CF0F
:1005D000682F70E0880F820F263540F425E530E063
:1005E000261B370B422F440F420F88CF2B3A58F06F
:1005F0004FEF480F8FEF90E0861B970B982F990FC6
:1006000060E0890F98CF4BEA50E0461B570B642FF0
:10061000660F640F40E082508ECF18BC87BD0895EE
:100620001F920F920FB60F921124EF92FF920F9329
:100630001F932F933F934F935F936F937F938F936A
:100640009F93AF93BF93EF93FF93CF93DF9300D02C
:1006500000D0CDB7DEB72091780029838091790052
:10066000A22FB82FBA83A983B0932901A0932801A0
:1006700024EA30E74DE75FE36091100170911101CA
:1006800080911201909113010E94BC057B018C01A5
:10069000A981BA81CD01A0E0B0E089839A83AB83C0
:1006A000BC83BC01CD010E94050520E037ED43E28B
:1006B0005CE369837A838B839C8369817A818B81F4
:1006C0009C810E94BC059B01AC01E982FA820B83EC
:1006D0001C8369817A818B819C810E94F3036093E2
:1006E000100170931101809312019093130180E423
:1006F00080937C00EAE7F0E08081806480830F9043
:100700000F900F900F90DF91CF91FF91EF91BF91DC
:10071000AF919F918F917F916F915F914F913F9199
:100720002F911F910F91FF90EF900F900FBE0F90A0
:100730001F9018951F921FB61F9211242F938F930D
:100740009F9380912A0190912B01823A27E0920792
:1007500060F4019690932B0180932A019F918F91D1
:100760002F911F901FBE1F90189510922B01109271
:100770002A0185B190E2892785B9F0CF991B79E0EC
:1007800004C0991F961708F0961B881F7A95C9F721
:1007900080950895AA1BBB1B51E107C0AA1FBB1F70
:1007A000A617B70710F0A61BB70B881F991F5A95FD
:1007B000A9F780959095BC01CD01089597FB072E70
:1007C00016F4009407D077FD09D00E94CA0307FCF5
:1007D00005D03EF4909581959F4F08957095619551
:1007E0007F4F08955058BB27AA270E940A040C94F3
:1007F0007D050E946F0538F00E94760520F039F4DF
:100800009F3F19F426F40C946C050EF4E095E7FB79
:100810000C946605E92F0E948E0558F3BA176207FB
:1008200073078407950720F079F4A6F50C94B005BA
:100830000EF4E0950B2EBA2FA02D0B01B9019001FB
:100840000C01CA01A0011124FF27591B99F0593F3F
:1008500050F4503E68F11A16F040A22F232F342F87
:100860004427585FF3CF469537952795A795F040D5
:100870005395C9F77EF41F16BA0B620B730B840BEA
:10088000BAF09150A1F0FF0FBB1F661F771F881FA2
:10089000C2F70EC0BA0F621F731F841F48F48795FA
:1008A00077956795B795F7959E3F08F0B0CF9395EC
:1008B000880F08F09927EE0F9795879508950E9465
:1008C000420508F481E008950E9478040C947D05A7
:1008D0000E94760558F00E946F0540F029F45F3FB2
:1008E00029F00C94660551110C94B1050C946C051B
:1008F0000E948E0568F39923B1F3552391F3951B5C
:10090000550BBB27AA2762177307840738F09F5F30
:100910005F4F220F331F441FAA1FA9F335D00E2E9D
:100920003AF0E0E832D091505040E695001CCAF70A
:100930002BD0FE2F29D0660F771F881FBB1F2617CD
:1009400037074807AB07B0E809F0BB0B802DBF01A4
:10095000FF2793585F4F3AF09E3F510578F00C9473
:1009600066050C94B1055F3FE4F3983ED4F3869599
:1009700077956795B795F7959F5FC9F7880F911D94
:100980009695879597F90895E1E0660F771F881F80
:10099000BB1F621773078407BA0720F0621B730B33
:1009A000840BBA0BEE1F88F7E09508950E94960518
:1009B00088F09F5798F0B92F9927B751B0F0E1F020
:1009C000660F771F881F991F1AF0BA95C9F714C0D0
:1009D000B13091F00E94B005B1E008950C94B005DB
:1009E000672F782F8827B85F39F0B93FCCF3869509
:1009F00077956795B395D9F73EF490958095709566
:100A000061957F4F8F4F9F4F0895E89409C097FBE2
:100A10003EF490958095709561957F4F8F4F9F4FD5
:100A20009923A9F0F92F96E9BB279395F695879519
:100A300077956795B795F111F8CFFAF4BB0F11F4DC
:100A400060FF1BC06F5F7F4F8F4F9F4F16C0882383
:100A500011F096E911C0772321F09EE8872F762FB9
:100A600005C0662371F096E8862F70E060E02AF0FA
:100A70009A95660F771F881FDAF7880F96958795E6
:100A800097F90895990F0008550FAA0BE0E8FEEFBB
:100A900016161706E807F907C0F012161306E40742
:100AA000F50798F0621B730B840B950B39F40A263B
:100AB00061F0232B242B252B21F408950A2609F419
:100AC000A140A6958FEF811D811D089597F99F671D
:100AD00080E870E060E008959FEF80EC08950024C6
:100AE0000A941616170618060906089500240A9493
:100AF00012161306140605060895092E0394000C19
:100B000011F4882352F0BB0F40F4BF2B11F460FFA7
:100B100004C06F5F7F4F8F4F9F4F089557FD9058D0
:100B2000440F551F59F05F3F71F04795880F97FBB1
:100B3000991F61F09F3F79F087950895121613066B
:100B40001406551FF2CF4695F1DF08C0161617069A
:100B50001806991FF1CF86957105610508940895CF
:100B6000E894BB2766277727CB0197F908950E9461
:100B7000420508F48FEF08950E94CF050C947D057F
:100B80000E946F0538F00E94760520F0952311F041
:100B90000C9466050C946C0511240C94B1050E940C
:100BA0008E0570F3959FC1F3950F50E0551F629F1E
:100BB000F001729FBB27F00DB11D639FAA27F00DB6
:100BC000B11DAA1F649F6627B00DA11D661F829FDD
:100BD0002227B00DA11D621F739FB00DA11D621FC2
:100BE000839FA00D611D221F749F3327A00D611DDF
:100BF000231F849F600D211D822F762F6A2F1124C1
:100C00009F5750409AF0F1F088234AF0EE0FFF1FF3
:100C1000BB1F661F771F881F91505040A9F79E3F4A
:100C2000510580F00C9466050C94B1055F3FE4F328
:100C3000983ED4F3869577956795B795F795E795A0
:100C40009F5FC1F7FE2B880F911D9695879597F9A9
:060C50000895F894FFCFA7
:100C56000AD7233B0000803E0000E03F3333733F5A
:040C66000000FA434D
:00000001FF
