:100000000C94B1000C94CE000C94CE000C94CE0055
:100010000C94CE000C94CE000C94CE000C94CE0028
:100020000C94CE000C948B030C94CE000C94CE0058
:100030000C94CE000C94CE000C9412010C94CE00C3
:100040000C94CE000C94CE000C94CE000C94CE00F8
:100050000C94CE000C94E0020C94CE000C94CE00D4
:100060000C94CE000C94CE0000407A10F35A00A0FD
:10007000724E18090010A5D4E80000E87648170071
:1000800000E40B54020000CA9A3B000000E1F505B1
:10009000000080969800000040420F000000A086FB
:1000A00001000000102700000000E803000000002D
:1000B0006400000000000A000000000001000000D1
:1000C00000002C76D888DC674F0823DFC1DFAE59EB
:1000D000E1B1B796E5E3E453C63AE651997696E87E
:1000E000E6C28426EB898C9B62ED407C6FFCEFBC02
:1000F0009C9F40F2BAA56FA5F490055A2AF75C932D
:100100006B6CF9676DC11BFCE0E40D47FEF520E662
:10011000B500D0ED902E0300943577050080841E45
:10012000080000204E0A000000C80C333333330FA0
:10013000986E12831141EF8D2114893BE65516CF3D
:10014000FEE6DB18D1844B381BF77C1D901DA4BB49
:10015000E424203284725E228100C9F124ECA1E5FE
:100160003D2711241FBECFEFD8E0DEBFCDBF11E089
:10017000A0E0B1E0EEEBF3E102C005900D92AC32ED
:10018000B107D9F721E0ACE2B1E001C01D92A23382
:10019000B207E1F70E94C6040C94DD090C9400003C
:1001A0000E9482030E94AF030E94D8020E940801AD
:1001B0002FEF81EE94E0215080409040E1F700C0A5
:1001C00000000895CF93DF93482F392FF62F6AE070
:1001D00070E00E94DD04282FE5E0CAE0D0E0F530B1
:1001E00061F4822FDF91CF910895842F932FBE0168
:1001F0000E94DD04282FFE17A1F3842F932FBE0148
:100200000E94DD04462F372FE150E111EECFE9CFF8
:100210008AB190E689278AB983EA84BD82E085BDE8
:10022000789408951F920F920FB60F9211240F9396
:100230001F932F933F934F935F936F937F938F936E
:100240009F93AF93BF93EF93FF93CF93DF93CDB77C
:10025000DEB72A97DEBFCDBF80912C0190912D0192
:1002600021E02D83811532E0930708F01D824D8136
:1002700040932401409118015091190160911A0195
:1002800070911B0140931C0150931D0160931E014E
:1002900070931F019C0140E050E029833A834B8317
:1002A0005C83CA01B9010E941906F62FE72F462F79
:1002B000572FBC01409318015093190160931A0104
:1002C00070931B012F2F3E2FAC0160911401709190
:1002D000150180911601909117010E94A706609365
:1002E00020017093210180932201909323013D818D
:1002F0003111BFC018BC8091180190911901A091D3
:100300001A01B0911B018D839E83AF83B887209122
:10031000100130911101409112015091130160E0E0
:1003200070E080E89FE30E9478052D813E814F8137
:10033000588569837A838B839C8369817A818B81D9
:100340009C810E94A70620E030E0A90169837A839E
:100350008B839C8369817A818B819C810E94A70613
:100360008B018A8799872091140130911501409162
:100370001601509117016D817E818F8198850E94B1
:10038000A7069B01AC0109831A839A859B83A985E3
:10039000AC8369817A818B819C810E940C058B01E1
:1003A0008A87998720911C0130911D0140911E017F
:1003B00050911F016D817E818F8198850E940B0570
:1003C00020910C0130910D0140910E0150910F01CF
:1003D00069837A838B839C8369817A818B819C81F9
:1003E0000E94A70620E030E0A90169837A838B830D
:1003F0009C8369817A818B819C810E9478059B0115
:10040000AC0109831A83BA85BB8389858C83698192
:100410007A818B819C810E940C0569837A838B830E
:100420009C8369817A818B819C810E94EA0567BDEA
:100430008FE99FE00197F1F700C000002A960FB600
:10044000F894DEBF0FBECDBFDF91CF91FF91EF914A
:10045000BF91AF919F918F917F916F915F914F91DC
:100460003F912F911F910F910F900FBE0F901F90F2
:10047000189517BC209118013091190140911A016B
:1004800050911B012D833E834F835887209110018B
:1004900030911101409112015091130160E070E020
:1004A00080E89FE30E9478052D813E814F81588529
:1004B00069837A838B839C8369817A818B819C8118
:1004C0000E94A70620E030E0A90169837A838B832C
:1004D0009C8369817A818B819C810E94A7068B0114
:1004E0008A87998720911401309115014091160156
:1004F000509117016D817E818F8198850E94A7069A
:100500009B01AC0109831A838A858B8399859C831F
:1005100069817A818B819C810E940C058B018A877D
:10052000998720911C0130911D0140911E0150912D
:100530001F016D817E818F8198850E940B0520911E
:100540000C0130910D0140910E0150910F01698312
:100550007A838B839C8369817A818B819C810E94C1
:10056000A70620E030E0A90169837A838B839C830E
:1005700069817A818B819C810E9478059B01AC0105
:1005800009831A83AA85AB83B985BC8369817A8183
:100590008B819C810E940C0569837A838B839C8369
:1005A00069817A818B819C810E94EA0568BD40CF78
:1005B0008CEC80937A0080E480937C00789408959A
:1005C0001F920F920FB60F921124EF92FF920F938A
:1005D0001F932F933F934F935F936F937F938F93CB
:1005E0009F93AF93BF93EF93FF93CF93DF9300D08D
:1005F00000D000D0CDB7DEB720917800298380915C
:100600007900422F582F5E834D8350932F014093E2
:100610002E0180912C0190912D019C0140E050E031
:1006200029833A834B835C83CA01B9010E9419066E
:100630002AE939E949E95EE369837A838B839C83FC
:1006400069817A818B819C810E94A7067B018C0144
:10065000AD81BE81CD01A0E0B0E089839A83AB83F8
:10066000BC83BC01CD010E94190623E333E343E3BD
:100670005FE369837A838B839C8369817A818B8131
:100680009C810E94A7069B01AC01E982FA820B8340
:100690001C8369817A818B819C810E940C0569830E
:1006A0007A838B839C8369817A818B819C810E9470
:1006B000EA0570932D0160932C0180E480937C0007
:1006C000EAE7F0E08081806480830F900F900F90C4
:1006D0000F900F900F90DF91CF91FF91EF91BF910D
:1006E000AF919F918F917F916F915F914F913F91CA
:1006F0002F911F910F91FF90EF900F900FBE0F90D1
:100700001F901895259A82E08093B10081E0809334
:100710007000789408951F921FB61F9211242F9392
:100720008F939F93809130019091310183342FE01A
:10073000920760F4019690933101809330019F916C
:100740008F912F911F901FBE1F901895109231010D
:100750001092300185B190E2892785B9F0CFE1ECA4
:10076000F0E0808188698083E2ECF0E0808186603F
:1007700080831092C50083E38093C4000895909114
:10078000C00095FFFCCF8093C60008950F931F9380
:10079000CF93DF93EC0197FF06C0D195C195D109A6
:1007A0008DE20E94BF0301E0102F0F5F612FCE0189
:1007B0000E94E2008823C1F3163028F0DF91CF9128
:1007C0001F910F910895612FCE010E94E200805D7C
:1007D0000E94BF031F5FF0CF0F931F93CF93DF9350
:1007E000EC018C01060F111DC017D10729F4DF9110
:1007F000CF911F910F91089589910E94BF03F4CF6B
:100800008091C00087FFFCCF8091C6000895CF93F0
:10081000DF93EC018991811103C0DF91CF9108959D
:100820000E94BF03F7CF009711F00C94C60380E33A
:100830000C94BF030F931F93CF93DF93C82F82E6CF
:100840000E94BF03CC23D1F008E010E0D0E88C2F49
:100850008D23882379F081E090E00E94C603D6952D
:10086000015011090115110591F7DF91CF911F91E9
:100870000F91089580E30E94BF03F1CF80E3DF91E1
:10088000CF911F910F910C94BF03CF93462F572FF9
:10089000BC01DB01CA0124E0B695A7959795879521
:1008A0002A95D1F7982F9F704F7080E39A3008F007
:1008B00087E3890FC0E34A3008F0C7E3C40F0E9402
:1008C000BF038C2FCF910C94BF030F931F93CF9333
:1008D000DF93CDB7DEB7A2970FB6F894DEBF0FBE99
:1008E000CDBF8E010B5E1F4F23E045E06F8F78A3D5
:1008F00089A39AA36F8D78A189A19AA10E94140758
:10090000B801CE0101960E944107CE0101960E94D6
:100910000704A2960FB6F894DEBF0FBECDBFDF91DD
:10092000CF911F910F910895CF93DF9300D000D006
:10093000CDB7DEB719821A821B821C820E94000486
:100940008D30E1F38A30B9F0E0EDE80FEA3098F449
:10095000AAE0B0E029813A814B815C810E94F104D8
:10096000DC01CB018E0F911DA11DB11D89839A83DE
:10097000AB83BC83E3CF69817A818B819C810F90AB
:100980000F900F900F90DF91CF91089500D000D07D
:10099000CDB7DEB70E94D000809120019091210157
:1009A000A0912201B0912301BC01CD010E946504F8
:1009B00089E291E00E940704EFCFAA1BBB1B51E123
:1009C00007C0AA1FBB1FA617B70710F0A61BB70BBF
:1009D000881F991F5A95A9F780959095BC01CD0164
:1009E00008950E94FC04A59F900DB49F900DA49FB4
:1009F000800D911D11240895A29FB001B39FC001E5
:100A0000A39F700D811D1124911DB29F700D811D3A
:100A10001124911D08955058BB27AA270E94230531
:100A20000C946D060E945F0638F00E94660620F066
:100A300039F49F3F19F426F40C945C060EF4E0950B
:100A4000E7FB0C945606E92F0E947E0658F3BA176E
:100A5000620773078407950720F079F4A6F50C94D4
:100A6000A0060EF4E0950B2EBA2FA02D0B01B901B4
:100A700090010C01CA01A0011124FF27591B99F014
:100A8000593F50F4503E68F11A16F040A22F232F20
:100A9000342F4427585FF3CF469537952795A79570
:100AA000F0405395C9F77EF41F16BA0B620B730B17
:100AB000840BBAF09150A1F0FF0FBB1F661F771F88
:100AC000881FC2F70EC0BA0F621F731F841F48F43D
:100AD000879577956795B795F7959E3F08F0B0CFC6
:100AE0009395880F08F09927EE0F979587950895AD
:100AF0000E948C050C946D060E94660658F00E94B8
:100B00005F0640F029F45F3F29F00C94560651111E
:100B10000C94A1060C945C060E947E0668F399234F
:100B2000B1F3552391F3951B550BBB27AA276217E9
:100B30007307840738F09F5F5F4F220F331F441FF6
:100B4000AA1FA9F335D00E2E3AF0E0E832D091502A
:100B50005040E695001CCAF72BD0FE2F29D0660F17
:100B6000771F881FBB1F261737074807AB07B0E85A
:100B700009F0BB0B802DBF01FF2793585F4F3AF060
:100B80009E3F510578F00C9456060C94A1065F3FE9
:100B9000E4F3983ED4F3869577956795B795F795E6
:100BA0009F5FC9F7880F911D9695879597F90895CE
:100BB000E1E0660F771F881FBB1F6217730784076A
:100BC000BA0720F0621B730B840BBA0BEE1F88F779
:100BD000E09508950E94860688F09F5798F0B92FF7
:100BE0009927B751B0F0E1F0660F771F881F991F62
:100BF0001AF0BA95C9F714C0B13091F00E94A0065E
:100C0000B1E008950C94A006672F782F8827B85F6D
:100C100039F0B93FCCF3869577956795B395D9F7B9
:100C20003EF490958095709561957F4F8F4F9F4FC3
:100C30000895E89409C097FB3EF4909580957095CF
:100C400061957F4F8F4F9F4F9923A9F0F92F96E918
:100C5000BB279395F695879577956795B795F1118D
:100C6000F8CFFAF4BB0F11F460FF1BC06F5F7F4F2A
:100C70008F4F9F4F16C0882311F096E911C077233C
:100C800021F09EE8872F762F05C0662371F096E845
:100C9000862F70E060E02AF09A95660F771F881F14
:100CA000DAF7880F9695879597F9089597F99F67D2
:100CB00080E870E060E008959FEF80EC08950024E4
:100CC0000A941616170618060906089500240A94B1
:100CD00012161306140605060895092E0394000C37
:100CE00011F4882352F0BB0F40F4BF2B11F460FFC6
:100CF00004C06F5F7F4F8F4F9F4F089557FD9058EF
:100D0000440F551F59F05F3F71F04795880F97FBCF
:100D1000991F61F09F3F79F0879508951216130689
:100D20001406551FF2CF4695F1DF08C016161706B8
:100D30001806991FF1CF86957105610508940895ED
:100D4000E894BB2766277727CB0197F908950E947F
:100D5000BA060C946D060E945F0638F00E94660683
:100D600020F0952311F00C9456060C945C06112487
:100D70000C94A1060E947E0670F3959FC1F3950F17
:100D800050E0551F629FF001729FBB27F00DB11D0F
:100D9000639FAA27F00DB11DAA1F649F6627B00D9F
:100DA000A11D661F829F2227B00DA11D621F739F88
:100DB000B00DA11D621F839FA00D611D221F749F96
:100DC0003327A00D611D231F849F600D211D822FDD
:100DD000762F6A2F11249F5750409AF0F1F0882304
:100DE0004AF0EE0FFF1FBB1F661F771F881F915031
:100DF0005040A9F79E3F510580F00C9456060C9484
:100E0000A1065F3FE4F3983ED4F386957795679506
:100E1000B795F795E7959F5FC1F7FE2B880F911D5A
:100E20009695879597F90895EF920F931F93CF9317
:100E3000DF9300D000D00F92CDB7DEB7322F0D83F5
:100E400054E047FD54E1242F27FD2195E52E032F83
:100E50004D81512F69837A838B839C8369817A8149
:100E60008B819C810E9448078D81912F0F900F905C
:100E70000F900F900F90DF91CF911F910F91EF90F6
:100E80000895FB01DC0101900D920020E1F7089527
:100E9000ADE0B0E0EEE4F7E00C94A7096A01722E31
:100EA000602EFE2C102F2BE3201708F41BE31F5F8E
:100EB000012F27E0AE014F5F5F4F6A877B878C87EA
:100EC0009D876A857B858C859D850E94C7084C011E
:100ED0000981902F9970802F88703F2D307191304B
:100EE00039F4882309F4FAC07DE2A72E84E0BBC060
:100EF000B82EF1FCADC04F2D4170A42E442309F44F
:100F000077C08111ACC002FDF0C0F0E23F2E540169
:100F100097FE02C0A12CB12C41E050E0311002C07C
:100F200040E050E0C5010196840F951F462C512CDE
:100F3000A2014F5F5F4F611002C040E050E0840F9C
:100F4000951F472D50E0272D281B841795070CF07F
:100F500020E03601FFEF6F1A7F0A332309F4CCC07B
:100F6000332019F0D6013C926301180D3A81802F8D
:100F70008071882319F0313309F4115011160CF0E7
:100F8000E7C0193008F018E0F401EA19FB0941E064
:100F900050E04C0F5D1FE40FF51FA401411B5109E8
:100FA0005194419451087EE28A149B040CF4D2C0FF
:100FB0004A155B050CF0CEC09181B1E0AB1AB108C7
:100FC00036016FEF661A760A3196A414B5040CF454
:100FD000C3C0D6019C93BFEFAB16BB0639F43601F4
:100FE00062E0660E711CD60111967C936301DCCF22
:100FF000811138C0502F5470352E552309F487CFF6
:1010000083E0E72CE81A871508F0E12C31110BC0BA
:101010000E2D10E0A80160E270E0C6010E949F0959
:10102000C00ED11EE12CBB2019F0F601B1926F0168
:1010300086010D5F1F4F29E69EE686E6F2FE03C09D
:1010400029E49EE486E4F60120839183828332C002
:10105000811141C002FD4DC0EBE23E2E58CF60E24F
:10106000A62E44CF83E0E72CE81A871508F0E12C80
:1010700031110BC00E2D10E0A80160E270E0C60136
:101080000E949F09C00ED11EE12CAA2019F0F60182
:10109000A1926F0186010D5F1F4F91E68EE6F2FE71
:1010A00002C091E48EE4D6018C9311969C93119723
:1010B00012968C93F12CA70160E270E0C8010E94A7
:1010C0009F09F801EE0DFF1D10828EEF9FEF2D9608
:1010D000E1E10C94C3095BE2A52E08CF4DE2B42EEA
:1010E00002FD05C08DE2382E12CF20E2B22E84E040
:1010F00088CF9BE2B92EFBCFF3FC18C0E22EF12C77
:10110000A70160E270E0C6010E949F0936016E0CE3
:101110007F1C20E0332071F0FFEFEF1AFF0AD301AC
:101120003C9220E036016E0C7F1C04C0332071F02D
:10113000F6013082C22ED12CA60160E370E0C3011B
:101140000E949F09C60CD71C20E00FCF3601F2CFBA
:1011500011E01ACF90E331CF8A149B0439F436336F
:1011600020F4353319F4811101C091E3F601908325
:10117000E22EF12CA70160E270E0C3010E949F09FA
:10118000F301EE0DFF1D108280E090E0A0CF28302B
:1011900008F027E03327DA01990F311D87FD9160B0
:1011A00000966105710539F432602E5F3D9330E39E
:1011B0002A95E1F708959F3F30F080387105610569
:1011C00009F03C5F3C5F3D93913008F08068911DD1
:1011D000DF93CF931F930F93FF92EF92192F987F76
:1011E0009695E92F96959695E90FFF27EE53FF4FB9
:1011F00099273327EE24FF24A701E70105900894DF
:10120000079428F4360FE71EF81E491F511D660F7C
:10121000771F881F991F0694A1F70590079428F45B
:10122000E70EF81E491F561FC11D770F881F991F13
:10123000661F0694A1F70590079428F4F80E491F3D
:10124000561FC71FD11D880F991F661F771F069451
:10125000A1F70590079420F4490F561FC71FD81F08
:10126000990F661F771F881F0694A9F78491109520
:10127000177041F0D695C79557954795F794E79421
:101280001A95C1F7E8E6F0E068941590159135914C
:101290006591959105907FE27395E118F10A430BF2
:1012A000560BC90BD009C0F7E10CF11E431F561FA6
:1012B000C91FD01D7EF4703311F48A95E6CFE894EF
:1012C000015030F0080F0AF40027021708F4202F0D
:1012D0002395022F7A3328F079E37D932A95E9F755
:1012E00010C07D932A9589F6069497956795379552
:1012F00017951794E118F10A430B560BC90BD00947
:1013000098F023957E9173957A3308F070E37C937F
:101310002013B8F77E9170617D9330F0839571E36F
:101320007D9370E32A95E1F71124EF90FF900F91E0
:101330001F91CF91DF91992787FD90950895DC014A
:1013400001C06D9341505040E0F708952F923F92B5
:101350004F925F926F927F928F929F92AF92BF92C5
:10136000CF92DF92EF92FF920F931F93CF93DF9371
:10137000CDB7DEB7CA1BDB0B0FB6F894DEBF0FBECE
:10138000CDBF09942A88398848885F846E847D841B
:101390008C849B84AA84B984C884DF80EE80FD801D
:1013A0000C811B81AA81B981CE0FD11D0FB6F89493
:0E13B000DEBF0FBECDBFED010895F894FFCF54
:1013BE00BD378635BD3786356F12833A0AD79340CF
:1013CE00000090431F85EB3E6F12833A00C07F44AE
:0C13DE000000C84201000000000D0A00E1
:00000001FF
