:100000000C94B1000C94CE000C94CE000C94CE0055
:100010000C94CE000C94CE000C94CE000C94CE0028
:100020000C94CE000C944F010C94CE000C94CE0096
:100030000C94CE000C94CE000C94CE000C94CE0008
:100040000C94CE000C94CE000C94CE000C94CE00F8
:100050000C94CE000C9429010C94CE000C94CE008C
:100060000C94CE000C94CE0000407A10F35A00A0FD
:10007000724E18090010A5D4E80000E87648170071
:1000800000E40B54020000CA9A3B000000E1F505B1
:10009000000080969800000040420F000000A086FB
:1000A00001000000102700000000E803000000002D
:1000B0006400000000000A000000000001000000D1
:1000C00000002C76D888DC674F0823DFC1DFAE59EB
:1000D000E1B1B796E5E3E453C63AE651997696E87E
:1000E000E6C28426EB898C9B62ED407C6FFCEFBC02
:1000F0009C9F40F2BAA56FA5F490055A2AF75C932D
:100100006B6CF9676DC11BFCE0E40D47FEF520E662
:10011000B500D0ED902E0300943577050080841E45
:10012000080000204E0A000000C80C333333330FA0
:10013000986E12831141EF8D2114893BE65516CF3D
:10014000FEE6DB18D1844B381BF77C1D901DA4BB49
:10015000E424203284725E228100C9F124ECA1E5FE
:100160003D2711241FBECFEFD8E0DEBFCDBF11E089
:10017000A0E0B1E0E8E2FBE002C005900D92A430FF
:10018000B107D9F721E0A4E0B1E001C01D92A83089
:10019000B207E1F70E948A020C9492050C940000C9
:1001A0000E9446010E9473010E9421010E940801E1
:1001B0002FEF81EE94E0215080409040E1F700C0A5
:1001C00000000895CF93DF93482F392FF62F6AE070
:1001D00070E00E949B02282FE5E0CAE0D0E0F530F5
:1001E00061F4822FDF91CF910895842F932FBE0168
:1001F0000E949B02282FFE17A1F3842F932FBE018C
:100200000E949B02462F372FE150E111EECFE9CF3C
:100210008AB188678AB98BB188618BB983EA84BD5A
:1002200082E085BD0895811109C018BC67BD8FE9C2
:100230009FE00197F1F700C00000089517BC68BD6A
:10024000F6CF8CEC80937A0080E480937C007894E5
:1002500008958F938FB78F939F93EF93FF93809120
:10026000780090917900909305018093040180E4D7
:1002700080937C00EAE7F0E0808180648083FF91D6
:10028000EF919F918F918FBF8F911895259A82E062
:100290008093B10081E080937000789408951F925C
:1002A0001FB61F9211242F938F939F938091060165
:1002B0009091070183342FE0920760F401969093A8
:1002C0000701809306019F918F912F911F901FBE70
:1002D0001F901895109207011092060185B190E2C7
:1002E000892785B9F0CFE1ECF0E0808188618083D7
:1002F000E2ECF0E08081866080831092C50083E3A9
:100300008093C40008959091C00095FFFCCF809326
:10031000C60008950F931F93CF93DF93EC0197FFCF
:1003200006C0D195C195D1098DE20E94830101E0FB
:10033000102F0F5F612FCE010E94E2008823C1F3CE
:10034000163028F0DF91CF911F910F910895612F02
:10035000CE010E94E200805D0E9483011F5FF0CF0A
:100360000F931F93CF93DF93EC018C01060F111DA8
:10037000C017D10729F4DF91CF911F910F910895F4
:1003800089910E948301F4CF8091C00087FFFCCF48
:100390008091C6000895CF93DF93EC01899181117C
:1003A00003C0DF91CF9108950E948301F7CF00979A
:1003B00011F00C948A0180E30C9483010F931F9336
:1003C000CF93DF93C82F82E60E948301CC23D1F024
:1003D00008E010E0D0E88C2F8D23882379F081E0AD
:1003E00090E00E948A01D69501501109011511056E
:1003F00091F7DF91CF911F910F91089580E30E94B3
:100400008301F1CF80E3DF91CF911F910F910C9485
:100410008301CF93462F572FBC01DB01CA0124E093
:10042000B695A795979587952A95D1F7982F9F70A0
:100430004F7080E39A3008F087E3890FC0E34A30B9
:1004400008F0C7E3C40F0E9483018C2FCF910C9456
:1004500083010F931F93CF93DF93CDB7DEB7A2979E
:100460000FB6F894DEBF0FBECDBF8E010B5E1F4FDF
:1004700023E045E06F8F78A389A39AA36F8D78A1BD
:1004800089A19AA10E94C902B801CE0101960E94D9
:10049000F602CE0101960E94CB01A2960FB6F89407
:1004A000DEBF0FBECDBFDF91CF911F910F91089599
:1004B000CF93DF9300D000D0CDB7DEB719821A8278
:1004C0001B821C820E94C4018D30E1F38A30B9F096
:1004D000E0EDE80FEA3098F4AAE0B0E029813A8133
:1004E0004B815C810E94AF02DC01CB018E0F911D1C
:1004F000A11DB11D89839A83AB83BC83E3CF69813E
:100500007A818B819C810F900F900F900F90DF91DB
:10051000CF9108950E94D00060E080E00E94130116
:1005200080910401909105010E94D70180E091E043
:100530000E94CB01F1CFAA1BBB1B51E107C0AA1F30
:10054000BB1FA617B70710F0A61BB70B881F991F74
:100550005A95A9F780959095BC01CD0108950E9408
:10056000BA02A59F900DB49F900DA49F800D911D80
:1005700011240895A29FB001B39FC001A39F700DE5
:10058000811D1124911DB29F700D811D1124911D9B
:100590000895EF920F931F93CF93DF9300D000D075
:1005A0000F92CDB7DEB7322F0D8354E047FD54E1F3
:1005B000242F27FD2195E52E032F4D81512F69838F
:1005C0007A838B839C8369817A818B819C810E9451
:1005D000FD028D81912F0F900F900F900F900F9033
:1005E000DF91CF911F910F91EF900895FB01DC01F6
:1005F00001900D920020E1F70895ADE0B0E0E3E056
:10060000F3E00C945C056A01722E602EFE2C102F14
:100610002BE3201708F41BE31F5F012F27E0AE0137
:100620004F5F5F4F6A877B878C879D876A857B8555
:100630008C859D850E947C044C010981902F9970C6
:10064000802F88703F2D3071913039F4882309F460
:10065000FAC07DE2A72E84E0BBC0B82EF1FCADC08D
:100660004F2D4170A42E442309F477C08111ACC0F2
:1006700002FDF0C0F0E23F2E540197FE02C0A12C13
:10068000B12C41E050E0311002C040E050E0C50123
:100690000196840F951F462C512CA2014F5F5F4F8E
:1006A000611002C040E050E0840F951F472D50E0DC
:1006B000272D281B841795070CF020E03601FFEF4B
:1006C0006F1A7F0A332309F4CCC0332019F0D60106
:1006D0003C926301180D3A81802F8071882319F0B4
:1006E000313309F4115011160CF0E7C0193008F03D
:1006F00018E0F401EA19FB0941E050E04C0F5D1FDE
:10070000E40FF51FA401411B510951944194510874
:100710007EE28A149B040CF4D2C04A155B050CF0EF
:10072000CEC09181B1E0AB1AB10836016FEF661A05
:10073000760A3196A414B5040CF4C3C0D6019C9378
:10074000BFEFAB16BB0639F4360162E0660E711CD2
:10075000D60111967C936301DCCF811138C0502FF4
:100760005470352E552309F487CF83E0E72CE81A1F
:10077000871508F0E12C31110BC00E2D10E0A801F7
:1007800060E270E0C6010E945405C00ED11EE12C4B
:10079000BB2019F0F601B1926F0186010D5F1F4F6A
:1007A00029E69EE686E6F2FE03C029E49EE486E49E
:1007B000F60120839183828332C0811141C002FD02
:1007C0004DC0EBE23E2E58CF60E2A62E44CF83E030
:1007D000E72CE81A871508F0E12C31110BC00E2D1B
:1007E00010E0A80160E270E0C6010E945405C00E4E
:1007F000D11EE12CAA2019F0F601A1926F01860109
:100800000D5F1F4F91E68EE6F2FE02C091E48EE48A
:10081000D6018C9311969C93119712968C93F12C80
:10082000A70160E270E0C8010E945405F801EE0DD6
:10083000FF1D10828EEF9FEF2D96E1E10C9478055D
:100840005BE2A52E08CF4DE2B42E02FD05C08DE27D
:10085000382E12CF20E2B22E84E088CF9BE2B92E50
:10086000FBCFF3FC18C0E22EF12CA70160E270E090
:10087000C6010E94540536016E0C7F1C20E0332017
:1008800071F0FFEFEF1AFF0AD3013C9220E036012E
:100890006E0C7F1C04C0332071F0F6013082C22E32
:1008A000D12CA60160E370E0C3010E945405C60C80
:1008B000D71C20E00FCF3601F2CF11E01ACF90E322
:1008C00031CF8A149B0439F4363320F4353319F4CC
:1008D000811101C091E3F6019083E22EF12CA70172
:1008E00060E270E0C3010E945405F301EE0DFF1DAC
:1008F000108280E090E0A0CF283008F027E0332776
:10090000DA01990F311D87FD91600096610571052F
:1009100039F432602E5F3D9330E32A95E1F7089574
:100920009F3F30F080387105610509F03C5F3C5F06
:100930003D93913008F08068911DDF93CF931F9312
:100940000F93FF92EF92192F987F9695E92F969526
:100950009695E90FFF27EE53FF4F99273327EE2493
:10096000FF24A701E70105900894079428F4360FA7
:10097000E71EF81E491F511D660F771F881F991F1C
:100980000694A1F70590079428F4E70EF81E491F76
:10099000561FC11D770F881F991F661F0694A1F768
:1009A0000590079428F4F80E491F561FC71FD11D44
:1009B000880F991F661F771F0694A1F7059007946B
:1009C00020F4490F561FC71FD81F990F661F771FA6
:1009D000881F0694A9F784911095177041F0D69559
:1009E000C79557954795F794E7941A95C1F7E8E6A8
:1009F000F0E0689415901591359165919591059069
:100A00007FE27395E118F10A430B560BC90BD0092D
:100A1000C0F7E10CF11E431F561FC91FD01D7EF405
:100A2000703311F48A95E6CFE894015030F0080F46
:100A30000AF40027021708F4202F2395022F7A3397
:100A400028F079E37D932A95E9F710C07D932A95E4
:100A500089F6069497956795379517951794E11839
:100A6000F10A430B560BC90BD00998F023957E91E0
:100A700073957A3308F070E37C932013B8F77E9176
:100A800070617D9330F0839571E37D9370E32A95D7
:100A9000E1F71124EF90FF900F911F91CF91DF911B
:100AA000992787FD90950895DC0101C06D93415011
:100AB0005040E0F708952F923F924F925F926F92CD
:100AC0007F928F929F92AF92BF92CF92DF92EF92DE
:100AD000FF920F931F93CF93DF93CDB7DEB7CA1B5F
:100AE000DB0B0FB6F894DEBF0FBECDBF09942A888A
:100AF000398848885F846E847D848C849B84AA8432
:100B0000B984C884DF80EE80FD800C811B81AA81BE
:100B1000B981CE0FD11D0FB6F894DEBF0FBECDBF89
:080B2000ED010895F894FFCFE8
:040B28000D0A0000B2
:00000001FF
