:100000000C94B1000C94CE000C94CE000C94CE0055
:100010000C94CE000C94CE000C94CE000C94CE0028
:100020000C94CE000C9432030C94CE000C94CE00B1
:100030000C94CE000C9421010C94CE000C94CE00B4
:100040000C94CE000C94CE000C94CE000C94CE00F8
:100050000C94CE000C949F020C94CE000C94CE0015
:100060000C94CE000C94CE0000407A10F35A00A0FD
:10007000724E18090010A5D4E80000E87648170071
:1000800000E40B54020000CA9A3B000000E1F505B1
:10009000000080969800000040420F000000A086FB
:1000A00001000000102700000000E803000000002D
:1000B0006400000000000A000000000001000000D1
:1000C00000002C76D888DC674F0823DFC1DFAE59EB
:1000D000E1B1B796E5E3E453C63AE651997696E87E
:1000E000E6C28426EB898C9B62ED407C6FFCEFBC02
:1000F0009C9F40F2BAA56FA5F490055A2AF75C932D
:100100006B6CF9676DC11BFCE0E40D47FEF520E662
:10011000B500D0ED902E0300943577050080841E45
:10012000080000204E0A000000C80C333333330FA0
:10013000986E12831141EF8D2114893BE65516CF3D
:10014000FEE6DB18D1844B381BF77C1D901DA4BB49
:10015000E424203284725E228100C9F124ECA1E5FE
:100160003D2711241FBECFEFD8E0DEBFCDBF11E089
:10017000A0E0B1E0E4E5F1E102C005900D92A0330A
:10018000B107D9F721E0A0E3B1E001C01D92A83486
:10019000B207E1F70E94D0000C94A8080C9400006C
:1001A00000D000D0CDB7DEB70E94FF0084E191E01F
:1001B0000E946D038091100190911101A091120194
:1001C000B0911301BC01CD010E9479038FE191E050
:1001D0000E946D0381E291E00E946D0380914001D5
:1001E00090914101A0914201B0914301BC01CD0128
:1001F0000E9479038DE291E00E946D03D7CF0E94A7
:1002000029030E9456030E9497020E9489020E94BD
:1002100013012FEF81EE94E0215080409040E1F7F0
:1002200000C00000089582E08093810081E0809307
:100230006F0088E79CEE909385008093840078940B
:1002400008951F920F920FB60F9211244F925F9252
:100250006F927F928F929F92AF92BF92CF92DF92D6
:10026000EF92FF920F931F932F933F934F935F93C0
:100270006F937F938F939F93AF93BF93EF93FF936E
:10028000CF93DF9300D000D000D0CDB7DEB788E7A2
:100290009CEE909385008093840020911001309112
:1002A0001101409112015091130160E070E08AEF5A
:1002B00093E40E94A8038B018E839D83CB01AE81C2
:1002C000BD818093300190933101A0933201B093AE
:1002D000330120913C0130913D0140913E0150910C
:1002E0003F0109831A83AB83BC8369817A818B8147
:1002F0009C810E94A9034B015C01CB01D501809335
:100300003C0190933D01A0933E01B0933F012091A9
:1003100034013091350140913601509137016981A6
:100320007A818B819C810E94A8036B017C01CB01A7
:10033000D7018093380190933901A0933A01B0938B
:100340003B01C801AE81BD8180933401909335019A
:10035000A0933601B0933701409000015090010105
:100360006090020170900301209108013091090111
:1003700040910A0150910B0189829A82AB82BC8222
:1003800069817A818B819C810E947205A30192010F
:1003900069837A838B839C8369817A818B819C8139
:1003A0000E9472054B015C0120910C0130910D01FE
:1003B00040910E0150910F0109831A838E818B8326
:1003C0008D818C8369817A818B819C810E947205E9
:1003D0009B01AC0189829A82AB82BC8269817A815D
:1003E0008B819C810E94A9038B018E839D83209128
:1003F0000401309105014091060150910701C98225
:10040000DA82EB82FC8269817A818B819C810E94F5
:100410007205A301920169837A838B839C8369812E
:100420007A818B819C810E941A049B01AC01098313
:100430001A838E818B838D818C8369817A818B81F4
:100440009C810E94A9038B018E839D8320E030E074
:1004500048E453E469831A838B839C8369817A819E
:100460008B819C810E946D0518160CF44BC020E016
:1004700030E048E453EC69817A818B819C810E9451
:10048000150487FD3FC0C801AE81BD818093400146
:1004900090934101A0934201B093430109831A83D1
:1004A000AB83BC8369817A818B819C810E948C049F
:1004B000862F0E9494020F900F900F900F900F9034
:1004C0000F90DF91CF91FF91EF91BF91AF919F91ED
:1004D0008F917F916F915F914F913F912F911F91DC
:1004E0000F91FF90EF90DF90CF90BF90AF909F90D3
:1004F0008F907F906F905F904F900F900FBE0F90F6
:100500001F90189500E010E088E48E8383E48D83CB
:10051000BACF8AB188678AB98BB188618BB983EA0F
:1005200084BD82E085BD089518BC87BD08958BEC1D
:1005300080937A0080E480937C00789408951F92E1
:100540000F920FB60F921124EF92FF920F931F9309
:100550002F933F934F935F936F937F938F939F93CB
:10056000AF93BF93EF93FF93CF93DF9300D000D06F
:10057000CDB7DEB720917800298380917900A22F32
:10058000B82FBA83A983B0934501A093440124EA0C
:1005900030E74DE75FE360911001709111018091A8
:1005A0001201909113010E9472057B018C01A981B7
:1005B000BA81CD01A0E0B0E089839A83AB83BC838C
:1005C000BC01CD010E94BB042AE037ED43E25CE3AD
:1005D00069837A838B839C8369817A818B819C81F7
:1005E0000E9472059B01AC01E982FA820B831C8395
:1005F00069817A818B819C810E94A903609310019B
:1006000070931101809312019093130180E4809301
:100610007C00EAE7F0E08081806480830F900F9097
:100620000F900F90DF91CF91FF91EF91BF91AF911C
:100630009F918F917F916F915F914F913F912F91FA
:100640001F910F91FF90EF900F900FBE0F901F9092
:100650001895259A82E08093B10081E08093700024
:10066000789408951F921FB61F9211242F938F9391
:100670009F93809146019091470183342FE0920728
:1006800060F4019690934701809346019F918F916A
:100690002F911F901FBE1F90189510924701109226
:1006A000460185B190E2892785B9F0CFE1ECF0E011
:1006B000808188618083E2ECF0E0808186608083C5
:1006C0001092C50083E38093C40008959091C00008
:1006D00095FFFCCF8093C6000895CF93DF93EC0184
:1006E0008991811103C0DF91CF9108950E94660323
:1006F000F7CF0F931F93CF93DF93CDB7DEB7A297BA
:100700000FB6F894DEBF0FBECDBF8E010B5E1F4F3C
:1007100023E045E06F8F78A389A39AA36F8D78A11A
:1007200089A19AA10E94DF05B801CE0101960E941D
:100730000C06CE0101960E946D03A2960FB6F894A6
:10074000DEBF0FBECDBFDF91CF911F910F910895F6
:100750005058BB27AA270E94C0030C9433050E945F
:10076000250538F00E942C0520F039F49F3F19F43C
:1007700026F40C9422050EF4E095E7FB0C941C057E
:10078000E92F0E94440558F3BA17620773078407DC
:10079000950720F079F4A6F50C9466050EF4E09523
:1007A0000B2EBA2FA02D0B01B90190010C01CA012B
:1007B000A0011124FF27591B99F0593F50F4503ED6
:1007C00068F11A16F040A22F232F342F4427585FC8
:1007D000F3CF469537952795A795F0405395C9F7E0
:1007E0007EF41F16BA0B620B730B840BBAF0915098
:1007F000A1F0FF0FBB1F661F771F881FC2F70EC037
:10080000BA0F621F731F841F48F487957795679509
:10081000B795F7959E3F08F0B0CF9395880F08F0F5
:100820009927EE0F9795879508950E94F80408F48C
:1008300081E008950E942E040C9433050E942C053B
:1008400058F00E94250540F029F45F3F29F00C94F0
:100850001C0551110C9467050C9422050E94440557
:1008600068F39923B1F3552391F3951B550BBB27DF
:10087000AA2762177307840738F09F5F5F4F220F24
:10088000331F441FAA1FA9F335D00E2E3AF0E0E81B
:1008900032D091505040E695001CCAF72BD0FE2F65
:1008A00029D0660F771F881FBB1F261737074807F9
:1008B000AB07B0E809F0BB0B802DBF01FF279358B1
:1008C0005F4F3AF09E3F510578F00C941C050C9454
:1008D00067055F3FE4F3983ED4F386957795679577
:1008E000B795F7959F5FC9F7880F911D96958795E6
:1008F00097F90895E1E0660F771F881FBB1F621705
:1009000073078407BA0720F0621B730B840BBA0BC2
:10091000EE1F88F7E09508950E944C0588F09F57D8
:1009200098F0B92F9927B751B0F0E1F0660F771F13
:10093000881F991F1AF0BA95C9F714C0B13091F009
:100940000E946605B1E008950C946605672F782F24
:100950008827B85F39F0B93FCCF3869577956795CE
:10096000B395D9F73EF490958095709561957F4F3A
:100970008F4F9F4F0895E89409C097FB3EF49095E0
:100980008095709561957F4F8F4F9F4F9923A9F068
:10099000F92F96E9BB279395F695879577956795F7
:1009A000B795F111F8CFFAF4BB0F11F460FF1BC03B
:1009B0006F5F7F4F8F4F9F4F16C0882311F096E9CE
:1009C00011C0772321F09EE8872F762F05C066237C
:1009D00071F096E8862F70E060E02AF09A95660F35
:1009E000771F881FDAF7880F9695879597F90895EE
:1009F000990F0008550FAA0BE0E8FEEF1616170630
:100A0000E807F907C0F012161306E407F50798F097
:100A1000621B730B840B950B39F40A2661F0232BB0
:100A2000242B252B21F408950A2609F4A140A6952C
:100A30008FEF811D811D089597F99F6780E870E011
:100A400060E008959FEF80EC089500240A94161644
:100A5000170618060906089500240A9412161306AC
:100A6000140605060895092E0394000C11F488233A
:100A700052F0BB0F40F4BF2B11F460FF04C06F5F56
:100A80007F4F8F4F9F4F089557FD9058440F551F2C
:100A900059F05F3F71F04795880F97FB991F61F000
:100AA0009F3F79F087950895121613061406551F77
:100AB000F2CF4695F1DF08C0161617061806991FE3
:100AC000F1CF86957105610508940895E894BB27D8
:100AD00066277727CB0197F908950E94F80408F458
:100AE0008FEF08950E9485050C9433050E9425051B
:100AF00038F00E942C0520F0952311F00C941C0571
:100B00000C94220511240C9467050E94440570F38F
:100B1000959FC1F3950F50E0551F629FF001729FA2
:100B2000BB27F00DB11D639FAA27F00DB11DAA1FB1
:100B3000649F6627B00DA11D661F829F2227B00DFE
:100B4000A11D621F739FB00DA11D621F839FA00D89
:100B5000611D221F749F3327A00D611D231F849FD9
:100B6000600D211D822F762F6A2F11249F57504030
:100B70009AF0F1F088234AF0EE0FFF1FBB1F661FAB
:100B8000771F881F91505040A9F79E3F510580F074
:100B90000C941C050C9467055F3FE4F3983ED4F376
:100BA000869577956795B795F795E7959F5FC1F718
:100BB000FE2B880F911D9695879597F90895EF92D2
:100BC0000F931F93CF93DF9300D000D00F92CDB738
:100BD000DEB7322F0D8354E047FD54E1242F27FD6B
:100BE0002195E52E032F4D81512F69837A838B83C5
:100BF0009C8369817A818B819C810E9413068D81FF
:100C0000912F0F900F900F900F900F90DF91CF9139
:100C10001F910F91EF900895FB01DC0101900D925F
:100C20000020E1F70895ADE0B0E0E9E1F6E00C94D2
:100C300072086A01722E602EFE2C102F2BE32017F3
:100C400008F41BE31F5F012F27E0AE014F5F5F4FEA
:100C50006A877B878C879D876A857B858C859D8548
:100C60000E9492074C010981902F9970802F887003
:100C70003F2D3071913039F4882309F4FAC07DE2B8
:100C8000A72E84E0BBC0B82EF1FCADC04F2D417043
:100C9000A42E442309F477C08111ACC002FDF0C03A
:100CA000F0E23F2E540197FE02C0A12CB12C41E08E
:100CB00050E0311002C040E050E0C5010196840FC1
:100CC000951F462C512CA2014F5F5F4F611002C04F
:100CD00040E050E0840F951F472D50E0272D281B42
:100CE000841795070CF020E03601FFEF6F1A7F0A9A
:100CF000332309F4CCC0332019F0D6013C926301B0
:100D0000180D3A81802F8071882319F0313309F44E
:100D1000115011160CF0E7C0193008F018E0F4017A
:100D2000EA19FB0941E050E04C0F5D1FE40FF51F8D
:100D3000A401411B51095194419451087EE28A1447
:100D40009B040CF4D2C04A155B050CF0CEC0918117
:100D5000B1E0AB1AB10836016FEF661A760A319628
:100D6000A414B5040CF4C3C0D6019C93BFEFAB161A
:100D7000BB0639F4360162E0660E711CD60111968D
:100D80007C936301DCCF811138C0502F5470352E15
:100D9000552309F487CF83E0E72CE81A871508F07C
:100DA000E12C31110BC00E2D10E0A80160E270E0C3
:100DB000C6010E946A08C00ED11EE12CBB2019F0AA
:100DC000F601B1926F0186010D5F1F4F29E69EE685
:100DD00086E6F2FE03C029E49EE486E4F601208361
:100DE0009183828332C0811141C002FD4DC0EBE28C
:100DF0003E2E58CF60E2A62E44CF83E0E72CE81ABF
:100E0000871508F0E12C31110BC00E2D10E0A80160
:100E100060E270E0C6010E946A08C00ED11EE12C9B
:100E2000AA2019F0F601A1926F0186010D5F1F4FF4
:100E300091E68EE6F2FE02C091E48EE4D6018C9338
:100E400011969C93119712968C93F12CA70160E256
:100E500070E0C8010E946A08F801EE0DFF1D1082C3
:100E60008EEF9FEF2D96E1E10C948E085BE2A52EAC
:100E700008CF4DE2B42E02FD05C08DE2382E12CF10
:100E800020E2B22E84E088CF9BE2B92EFBCFF3FCA8
:100E900018C0E22EF12CA70160E270E0C6010E94AA
:100EA0006A0836016E0C7F1C20E0332071F0FFEFE2
:100EB000EF1AFF0AD3013C9220E036016E0C7F1C32
:100EC00004C0332071F0F6013082C22ED12CA6016D
:100ED00060E370E0C3010E946A08C60CD71C20E0E2
:100EE0000FCF3601F2CF11E01ACF90E331CF8A1441
:100EF0009B0439F4363320F4353319F4811101C0E1
:100F000091E3F6019083E22EF12CA70160E270E0FC
:100F1000C3010E946A08F301EE0DFF1D108280E0FC
:100F200090E0A0CF283008F027E03327DA01990FAE
:100F3000311D87FD916000966105710539F43260BD
:100F40002E5F3D9330E32A95E1F708959F3F30F0FF
:100F500080387105610509F03C5F3C5F3D9391303D
:100F600008F08068911DDF93CF931F930F93FF923A
:100F7000EF92192F987F9695E92F96959695E90F00
:100F8000FF27EE53FF4F99273327EE24FF24A701B5
:100F9000E70105900894079428F4360FE71EF81E21
:100FA000491F511D660F771F881F991F0694A1F7CF
:100FB0000590079428F4E70EF81E491F561FC11D1F
:100FC000770F881F991F661F0694A1F70590079455
:100FD00028F4F80E491F561FC71FD11D880F991FEF
:100FE000661F771F0694A1F70590079420F4490F18
:100FF000561FC71FD81F990F661F771F881F06949B
:10100000A9F784911095177041F0D695C79557951B
:101010004795F794E7941A95C1F7E8E6F0E06894ED
:101020001590159135916591959105907FE2739595
:10103000E118F10A430B560BC90BD009C0F7E10CBC
:10104000F11E431F561FC91FD01D7EF4703311F4CB
:101050008A95E6CFE894015030F0080F0AF4002793
:10106000021708F4202F2395022F7A3328F079E312
:101070007D932A95E9F710C07D932A9589F6069409
:1010800097956795379517951794E118F10A430BD3
:10109000560BC90BD00998F023957E9173957A333E
:1010A00008F070E37C932013B8F77E9170617D9314
:1010B00030F0839571E37D9370E32A95E1F7112475
:1010C000EF90FF900F911F91CF91DF91992787FDAE
:1010D00090950895DC0101C06D9341505040E0F7B8
:1010E00008952F923F924F925F926F927F928F92CC
:1010F0009F92AF92BF92CF92DF92EF92FF920F93A7
:101100001F93CF93DF93CDB7DEB7CA1BDB0B0FB6B0
:10111000F894DEBF0FBECDBF09942A88398848886D
:101120005F846E847D848C849B84AA84B984C88403
:10113000DF80EE80FD800C811B81AA81B981CE0FFA
:10114000D11D0FB6F894DEBF0FBECDBFED010895DF
:04115000F894FFCF41
:101154000AD7233BCDCC4C3E9A99593F3333733F46
:101164000000FA43706F7456616C75653A2000098B
:10117400007069644F75747075743A20000D0A002C
:00000001FF
